{
  "_format": "hh-sol-artifact-1",
  "contractName": "LootByRogue",
  "sourceName": "contracts/v1/LootByRogue.sol",
  "abi": [
    {
      "inputs": [],
      "stateMutability": "nonpayable",
      "type": "constructor"
    },
    {
      "anonymous": false,
      "inputs": [
        {
          "indexed": true,
          "internalType": "address",
          "name": "owner",
          "type": "address"
        },
        {
          "indexed": true,
          "internalType": "address",
          "name": "approved",
          "type": "address"
        },
        {
          "indexed": true,
          "internalType": "uint256",
          "name": "tokenId",
          "type": "uint256"
        }
      ],
      "name": "Approval",
      "type": "event"
    },
    {
      "anonymous": false,
      "inputs": [
        {
          "indexed": true,
          "internalType": "address",
          "name": "owner",
          "type": "address"
        },
        {
          "indexed": true,
          "internalType": "address",
          "name": "operator",
          "type": "address"
        },
        {
          "indexed": false,
          "internalType": "bool",
          "name": "approved",
          "type": "bool"
        }
      ],
      "name": "ApprovalForAll",
      "type": "event"
    },
    {
      "anonymous": false,
      "inputs": [
        {
          "indexed": false,
          "internalType": "address",
          "name": "validator",
          "type": "address"
        },
        {
          "indexed": false,
          "internalType": "uint256",
          "name": "tokenId",
          "type": "uint256"
        },
        {
          "indexed": false,
          "internalType": "uint256",
          "name": "seed",
          "type": "uint256"
        }
      ],
      "name": "MintSeed",
      "type": "event"
    },
    {
      "anonymous": false,
      "inputs": [
        {
          "indexed": true,
          "internalType": "address",
          "name": "previousOwner",
          "type": "address"
        },
        {
          "indexed": true,
          "internalType": "address",
          "name": "newOwner",
          "type": "address"
        }
      ],
      "name": "OwnershipTransferred",
      "type": "event"
    },
    {
      "anonymous": false,
      "inputs": [
        {
          "indexed": false,
          "internalType": "address",
          "name": "account",
          "type": "address"
        }
      ],
      "name": "Paused",
      "type": "event"
    },
    {
      "anonymous": false,
      "inputs": [
        {
          "indexed": true,
          "internalType": "bytes32",
          "name": "role",
          "type": "bytes32"
        },
        {
          "indexed": true,
          "internalType": "bytes32",
          "name": "previousAdminRole",
          "type": "bytes32"
        },
        {
          "indexed": true,
          "internalType": "bytes32",
          "name": "newAdminRole",
          "type": "bytes32"
        }
      ],
      "name": "RoleAdminChanged",
      "type": "event"
    },
    {
      "anonymous": false,
      "inputs": [
        {
          "indexed": true,
          "internalType": "bytes32",
          "name": "role",
          "type": "bytes32"
        },
        {
          "indexed": true,
          "internalType": "address",
          "name": "account",
          "type": "address"
        },
        {
          "indexed": true,
          "internalType": "address",
          "name": "sender",
          "type": "address"
        }
      ],
      "name": "RoleGranted",
      "type": "event"
    },
    {
      "anonymous": false,
      "inputs": [
        {
          "indexed": true,
          "internalType": "bytes32",
          "name": "role",
          "type": "bytes32"
        },
        {
          "indexed": true,
          "internalType": "address",
          "name": "account",
          "type": "address"
        },
        {
          "indexed": true,
          "internalType": "address",
          "name": "sender",
          "type": "address"
        }
      ],
      "name": "RoleRevoked",
      "type": "event"
    },
    {
      "anonymous": false,
      "inputs": [
        {
          "indexed": true,
          "internalType": "address",
          "name": "from",
          "type": "address"
        },
        {
          "indexed": true,
          "internalType": "address",
          "name": "to",
          "type": "address"
        },
        {
          "indexed": true,
          "internalType": "uint256",
          "name": "tokenId",
          "type": "uint256"
        }
      ],
      "name": "Transfer",
      "type": "event"
    },
    {
      "anonymous": false,
      "inputs": [
        {
          "indexed": false,
          "internalType": "address",
          "name": "account",
          "type": "address"
        }
      ],
      "name": "Unpaused",
      "type": "event"
    },
    {
      "inputs": [],
      "name": "DEFAULT_ADMIN_ROLE",
      "outputs": [
        {
          "internalType": "bytes32",
          "name": "",
          "type": "bytes32"
        }
      ],
      "stateMutability": "view",
      "type": "function"
    },
    {
      "inputs": [],
      "name": "MINTER_ROLE",
      "outputs": [
        {
          "internalType": "bytes32",
          "name": "",
          "type": "bytes32"
        }
      ],
      "stateMutability": "view",
      "type": "function"
    },
    {
      "inputs": [
        {
          "internalType": "address",
          "name": "to",
          "type": "address"
        },
        {
          "internalType": "uint256",
          "name": "tokenId",
          "type": "uint256"
        }
      ],
      "name": "approve",
      "outputs": [],
      "stateMutability": "nonpayable",
      "type": "function"
    },
    {
      "inputs": [
        {
          "internalType": "address",
          "name": "owner",
          "type": "address"
        }
      ],
      "name": "balanceOf",
      "outputs": [
        {
          "internalType": "uint256",
          "name": "",
          "type": "uint256"
        }
      ],
      "stateMutability": "view",
      "type": "function"
    },
    {
      "inputs": [
        {
          "internalType": "uint256",
          "name": "tokenId",
          "type": "uint256"
        }
      ],
      "name": "getApproved",
      "outputs": [
        {
          "internalType": "address",
          "name": "",
          "type": "address"
        }
      ],
      "stateMutability": "view",
      "type": "function"
    },
    {
      "inputs": [
        {
          "internalType": "uint256",
          "name": "tokenId",
          "type": "uint256"
        }
      ],
      "name": "getAttack",
      "outputs": [
        {
          "internalType": "uint16",
          "name": "",
          "type": "uint16"
        }
      ],
      "stateMutability": "view",
      "type": "function"
    },
    {
      "inputs": [
        {
          "internalType": "uint256",
          "name": "tokenId",
          "type": "uint256"
        }
      ],
      "name": "getChest",
      "outputs": [
        {
          "internalType": "string",
          "name": "",
          "type": "string"
        }
      ],
      "stateMutability": "view",
      "type": "function"
    },
    {
      "inputs": [
        {
          "internalType": "uint256",
          "name": "tokenId",
          "type": "uint256"
        }
      ],
      "name": "getCurrentHp",
      "outputs": [
        {
          "internalType": "uint16",
          "name": "",
          "type": "uint16"
        }
      ],
      "stateMutability": "view",
      "type": "function"
    },
    {
      "inputs": [
        {
          "internalType": "uint256",
          "name": "tokenId",
          "type": "uint256"
        }
      ],
      "name": "getDefence",
      "outputs": [
        {
          "internalType": "uint16",
          "name": "",
          "type": "uint16"
        }
      ],
      "stateMutability": "view",
      "type": "function"
    },
    {
      "inputs": [
        {
          "internalType": "uint256",
          "name": "tokenId",
          "type": "uint256"
        }
      ],
      "name": "getFoot",
      "outputs": [
        {
          "internalType": "string",
          "name": "",
          "type": "string"
        }
      ],
      "stateMutability": "view",
      "type": "function"
    },
    {
      "inputs": [
        {
          "internalType": "uint256",
          "name": "tokenId",
          "type": "uint256"
        }
      ],
      "name": "getHand",
      "outputs": [
        {
          "internalType": "string",
          "name": "",
          "type": "string"
        }
      ],
      "stateMutability": "view",
      "type": "function"
    },
    {
      "inputs": [
        {
          "internalType": "uint256",
          "name": "tokenId",
          "type": "uint256"
        }
      ],
      "name": "getHead",
      "outputs": [
        {
          "internalType": "string",
          "name": "",
          "type": "string"
        }
      ],
      "stateMutability": "view",
      "type": "function"
    },
    {
      "inputs": [
        {
          "internalType": "uint256",
          "name": "tokenId",
          "type": "uint256"
        }
      ],
      "name": "getMaxHp",
      "outputs": [
        {
          "internalType": "uint16",
          "name": "",
          "type": "uint16"
        }
      ],
      "stateMutability": "view",
      "type": "function"
    },
    {
      "inputs": [
        {
          "internalType": "uint256",
          "name": "tokenId",
          "type": "uint256"
        }
      ],
      "name": "getNeck",
      "outputs": [
        {
          "internalType": "string",
          "name": "",
          "type": "string"
        }
      ],
      "stateMutability": "view",
      "type": "function"
    },
    {
      "inputs": [
        {
          "internalType": "uint256",
          "name": "tokenId",
          "type": "uint256"
        }
      ],
      "name": "getRecovery",
      "outputs": [
        {
          "internalType": "uint16",
          "name": "",
          "type": "uint16"
        }
      ],
      "stateMutability": "view",
      "type": "function"
    },
    {
      "inputs": [
        {
          "internalType": "uint256",
          "name": "tokenId",
          "type": "uint256"
        },
        {
          "internalType": "uint256",
          "name": "index",
          "type": "uint256"
        }
      ],
      "name": "getRelic",
      "outputs": [
        {
          "internalType": "uint256",
          "name": "",
          "type": "uint256"
        }
      ],
      "stateMutability": "view",
      "type": "function"
    },
    {
      "inputs": [
        {
          "internalType": "uint256",
          "name": "tokenId",
          "type": "uint256"
        }
      ],
      "name": "getRelics",
      "outputs": [
        {
          "internalType": "uint256[]",
          "name": "",
          "type": "uint256[]"
        }
      ],
      "stateMutability": "view",
      "type": "function"
    },
    {
      "inputs": [
        {
          "internalType": "uint256",
          "name": "tokenId",
          "type": "uint256"
        }
      ],
      "name": "getRelicsLength",
      "outputs": [
        {
          "internalType": "uint256",
          "name": "",
          "type": "uint256"
        }
      ],
      "stateMutability": "view",
      "type": "function"
    },
    {
      "inputs": [
        {
          "internalType": "uint256",
          "name": "tokenId",
          "type": "uint256"
        }
      ],
      "name": "getRing",
      "outputs": [
        {
          "internalType": "string",
          "name": "",
          "type": "string"
        }
      ],
      "stateMutability": "view",
      "type": "function"
    },
    {
      "inputs": [
        {
          "internalType": "bytes32",
          "name": "role",
          "type": "bytes32"
        }
      ],
      "name": "getRoleAdmin",
      "outputs": [
        {
          "internalType": "bytes32",
          "name": "",
          "type": "bytes32"
        }
      ],
      "stateMutability": "view",
      "type": "function"
    },
    {
      "inputs": [
        {
          "internalType": "uint256",
          "name": "tokenId",
          "type": "uint256"
        }
      ],
      "name": "getSeed",
      "outputs": [
        {
          "internalType": "uint256",
          "name": "",
          "type": "uint256"
        }
      ],
      "stateMutability": "view",
      "type": "function"
    },
    {
      "inputs": [
        {
          "internalType": "uint256",
          "name": "tokenId",
          "type": "uint256"
        },
        {
          "internalType": "uint256",
          "name": "index",
          "type": "uint256"
        }
      ],
      "name": "getStats",
      "outputs": [
        {
          "internalType": "uint16",
          "name": "",
          "type": "uint16"
        }
      ],
      "stateMutability": "view",
      "type": "function"
    },
    {
      "inputs": [
        {
          "internalType": "uint256",
          "name": "tokenId",
          "type": "uint256"
        }
      ],
      "name": "getTurn",
      "outputs": [
        {
          "internalType": "uint16",
          "name": "",
          "type": "uint16"
        }
      ],
      "stateMutability": "view",
      "type": "function"
    },
    {
      "inputs": [
        {
          "internalType": "uint256",
          "name": "tokenId",
          "type": "uint256"
        },
        {
          "internalType": "uint256",
          "name": "index",
          "type": "uint256"
        }
      ],
      "name": "getUnique",
      "outputs": [
        {
          "internalType": "uint8",
          "name": "",
          "type": "uint8"
        }
      ],
      "stateMutability": "view",
      "type": "function"
    },
    {
      "inputs": [
        {
          "internalType": "uint256",
          "name": "tokenId",
          "type": "uint256"
        }
      ],
      "name": "getWaist",
      "outputs": [
        {
          "internalType": "string",
          "name": "",
          "type": "string"
        }
      ],
      "stateMutability": "view",
      "type": "function"
    },
    {
      "inputs": [
        {
          "internalType": "uint256",
          "name": "tokenId",
          "type": "uint256"
        }
      ],
      "name": "getWeapon",
      "outputs": [
        {
          "internalType": "string",
          "name": "",
          "type": "string"
        }
      ],
      "stateMutability": "view",
      "type": "function"
    },
    {
      "inputs": [
        {
          "internalType": "bytes32",
          "name": "role",
          "type": "bytes32"
        },
        {
          "internalType": "address",
          "name": "account",
          "type": "address"
        }
      ],
      "name": "grantRole",
      "outputs": [],
      "stateMutability": "nonpayable",
      "type": "function"
    },
    {
      "inputs": [
        {
          "internalType": "bytes32",
          "name": "role",
          "type": "bytes32"
        },
        {
          "internalType": "address",
          "name": "account",
          "type": "address"
        }
      ],
      "name": "hasRole",
      "outputs": [
        {
          "internalType": "bool",
          "name": "",
          "type": "bool"
        }
      ],
      "stateMutability": "view",
      "type": "function"
    },
    {
      "inputs": [
        {
          "internalType": "address",
          "name": "owner",
          "type": "address"
        },
        {
          "internalType": "address",
          "name": "operator",
          "type": "address"
        }
      ],
      "name": "isApprovedForAll",
      "outputs": [
        {
          "internalType": "bool",
          "name": "",
          "type": "bool"
        }
      ],
      "stateMutability": "view",
      "type": "function"
    },
    {
      "inputs": [
        {
          "internalType": "uint256",
          "name": "",
          "type": "uint256"
        }
      ],
      "name": "mintedSeed",
      "outputs": [
        {
          "internalType": "bool",
          "name": "",
          "type": "bool"
        }
      ],
      "stateMutability": "view",
      "type": "function"
    },
    {
      "inputs": [],
      "name": "name",
      "outputs": [
        {
          "internalType": "string",
          "name": "",
          "type": "string"
        }
      ],
      "stateMutability": "view",
      "type": "function"
    },
    {
      "inputs": [],
      "name": "owner",
      "outputs": [
        {
          "internalType": "address",
          "name": "",
          "type": "address"
        }
      ],
      "stateMutability": "view",
      "type": "function"
    },
    {
      "inputs": [
        {
          "internalType": "uint256",
          "name": "tokenId",
          "type": "uint256"
        }
      ],
      "name": "ownerOf",
      "outputs": [
        {
          "internalType": "address",
          "name": "",
          "type": "address"
        }
      ],
      "stateMutability": "view",
      "type": "function"
    },
    {
      "inputs": [],
      "name": "pause",
      "outputs": [],
      "stateMutability": "nonpayable",
      "type": "function"
    },
    {
      "inputs": [],
      "name": "paused",
      "outputs": [
        {
          "internalType": "bool",
          "name": "",
          "type": "bool"
        }
      ],
      "stateMutability": "view",
      "type": "function"
    },
    {
      "inputs": [
        {
          "internalType": "uint256",
          "name": "rand",
          "type": "uint256"
        },
        {
          "internalType": "string[]",
          "name": "sourceArray",
          "type": "string[]"
        }
      ],
      "name": "pluck",
      "outputs": [
        {
          "internalType": "string",
          "name": "",
          "type": "string"
        }
      ],
      "stateMutability": "view",
      "type": "function"
    },
    {
      "inputs": [],
      "name": "renounceOwnership",
      "outputs": [],
      "stateMutability": "nonpayable",
      "type": "function"
    },
    {
      "inputs": [
        {
          "internalType": "bytes32",
          "name": "role",
          "type": "bytes32"
        },
        {
          "internalType": "address",
          "name": "account",
          "type": "address"
        }
      ],
      "name": "renounceRole",
      "outputs": [],
      "stateMutability": "nonpayable",
      "type": "function"
    },
    {
      "inputs": [
        {
          "internalType": "bytes32",
          "name": "role",
          "type": "bytes32"
        },
        {
          "internalType": "address",
          "name": "account",
          "type": "address"
        }
      ],
      "name": "revokeRole",
      "outputs": [],
      "stateMutability": "nonpayable",
      "type": "function"
    },
    {
      "inputs": [
        {
          "internalType": "address",
          "name": "to",
          "type": "address"
        },
        {
          "components": [
            {
              "internalType": "uint256",
              "name": "seed",
              "type": "uint256"
            },
            {
              "internalType": "uint16",
              "name": "turn",
              "type": "uint16"
            },
            {
              "internalType": "uint16",
              "name": "maxHp",
              "type": "uint16"
            },
            {
              "internalType": "uint16",
              "name": "currentHp",
              "type": "uint16"
            },
            {
              "internalType": "uint16",
              "name": "attack",
              "type": "uint16"
            },
            {
              "internalType": "uint16",
              "name": "defence",
              "type": "uint16"
            },
            {
              "internalType": "uint16",
              "name": "recovery",
              "type": "uint16"
            },
            {
              "internalType": "uint16[6]",
              "name": "stats",
              "type": "uint16[6]"
            },
            {
              "internalType": "uint8[4]",
              "name": "unique",
              "type": "uint8[4]"
            },
            {
              "internalType": "uint256",
              "name": "weapon",
              "type": "uint256"
            },
            {
              "internalType": "uint256",
              "name": "chestArmor",
              "type": "uint256"
            },
            {
              "internalType": "uint256",
              "name": "headArmor",
              "type": "uint256"
            },
            {
              "internalType": "uint256",
              "name": "waistArmor",
              "type": "uint256"
            },
            {
              "internalType": "uint256",
              "name": "footArmor",
              "type": "uint256"
            },
            {
              "internalType": "uint256",
              "name": "handArmor",
              "type": "uint256"
            },
            {
              "internalType": "uint256",
              "name": "necklace",
              "type": "uint256"
            },
            {
              "internalType": "uint256",
              "name": "ring",
              "type": "uint256"
            },
            {
              "internalType": "uint256[]",
              "name": "relics",
              "type": "uint256[]"
            }
          ],
          "internalType": "struct ILootByRogue.AdventureRecord",
          "name": "record",
          "type": "tuple"
        }
      ],
      "name": "safeMint",
      "outputs": [],
      "stateMutability": "nonpayable",
      "type": "function"
    },
    {
      "inputs": [
        {
          "internalType": "address",
          "name": "from",
          "type": "address"
        },
        {
          "internalType": "address",
          "name": "to",
          "type": "address"
        },
        {
          "internalType": "uint256",
          "name": "tokenId",
          "type": "uint256"
        }
      ],
      "name": "safeTransferFrom",
      "outputs": [],
      "stateMutability": "nonpayable",
      "type": "function"
    },
    {
      "inputs": [
        {
          "internalType": "address",
          "name": "from",
          "type": "address"
        },
        {
          "internalType": "address",
          "name": "to",
          "type": "address"
        },
        {
          "internalType": "uint256",
          "name": "tokenId",
          "type": "uint256"
        },
        {
          "internalType": "bytes",
          "name": "data",
          "type": "bytes"
        }
      ],
      "name": "safeTransferFrom",
      "outputs": [],
      "stateMutability": "nonpayable",
      "type": "function"
    },
    {
      "inputs": [
        {
          "internalType": "address",
          "name": "operator",
          "type": "address"
        },
        {
          "internalType": "bool",
          "name": "approved",
          "type": "bool"
        }
      ],
      "name": "setApprovalForAll",
      "outputs": [],
      "stateMutability": "nonpayable",
      "type": "function"
    },
    {
      "inputs": [
        {
          "internalType": "bytes4",
          "name": "interfaceId",
          "type": "bytes4"
        }
      ],
      "name": "supportsInterface",
      "outputs": [
        {
          "internalType": "bool",
          "name": "",
          "type": "bool"
        }
      ],
      "stateMutability": "view",
      "type": "function"
    },
    {
      "inputs": [],
      "name": "symbol",
      "outputs": [
        {
          "internalType": "string",
          "name": "",
          "type": "string"
        }
      ],
      "stateMutability": "view",
      "type": "function"
    },
    {
      "inputs": [
        {
          "internalType": "uint256",
          "name": "tokenId",
          "type": "uint256"
        }
      ],
      "name": "tokenURI",
      "outputs": [
        {
          "internalType": "string",
          "name": "",
          "type": "string"
        }
      ],
      "stateMutability": "view",
      "type": "function"
    },
    {
      "inputs": [
        {
          "internalType": "uint256",
          "name": "",
          "type": "uint256"
        }
      ],
      "name": "tokens",
      "outputs": [
        {
          "internalType": "uint256",
          "name": "seed",
          "type": "uint256"
        },
        {
          "internalType": "uint16",
          "name": "turn",
          "type": "uint16"
        },
        {
          "internalType": "uint16",
          "name": "maxHp",
          "type": "uint16"
        },
        {
          "internalType": "uint16",
          "name": "currentHp",
          "type": "uint16"
        },
        {
          "internalType": "uint16",
          "name": "attack",
          "type": "uint16"
        },
        {
          "internalType": "uint16",
          "name": "defence",
          "type": "uint16"
        },
        {
          "internalType": "uint16",
          "name": "recovery",
          "type": "uint16"
        },
        {
          "internalType": "uint256",
          "name": "weapon",
          "type": "uint256"
        },
        {
          "internalType": "uint256",
          "name": "chestArmor",
          "type": "uint256"
        },
        {
          "internalType": "uint256",
          "name": "headArmor",
          "type": "uint256"
        },
        {
          "internalType": "uint256",
          "name": "waistArmor",
          "type": "uint256"
        },
        {
          "internalType": "uint256",
          "name": "footArmor",
          "type": "uint256"
        },
        {
          "internalType": "uint256",
          "name": "handArmor",
          "type": "uint256"
        },
        {
          "internalType": "uint256",
          "name": "necklace",
          "type": "uint256"
        },
        {
          "internalType": "uint256",
          "name": "ring",
          "type": "uint256"
        }
      ],
      "stateMutability": "view",
      "type": "function"
    },
    {
      "inputs": [
        {
          "internalType": "address",
          "name": "from",
          "type": "address"
        },
        {
          "internalType": "address",
          "name": "to",
          "type": "address"
        },
        {
          "internalType": "uint256",
          "name": "tokenId",
          "type": "uint256"
        }
      ],
      "name": "transferFrom",
      "outputs": [],
      "stateMutability": "nonpayable",
      "type": "function"
    },
    {
      "inputs": [
        {
          "internalType": "address",
          "name": "newOwner",
          "type": "address"
        }
      ],
      "name": "transferOwnership",
      "outputs": [],
      "stateMutability": "nonpayable",
      "type": "function"
    },
    {
      "inputs": [],
      "name": "unpause",
      "outputs": [],
      "stateMutability": "nonpayable",
      "type": "function"
    }
  ],
  "bytecode": "0x608060405234620038a65762000014620038ed565b600b81526a4c6f6f744279526f67756560a81b602082015262000036620038ed565b60058152642627a7aa2960d91b602082015281516001600160401b038111620023ea57620000666000546200390d565b601f811162003865575b50602092601f8211600114620037ef5792819293600092620037e3575b50508160011b916000199060031b1c1916176000555b80516001600160401b038111620023ea57620000c16001546200390d565b601f811162003790575b50602091601f821160011462003726579181926000926200371a575b50508160011b916000199060031b1c1916176001555b60068054336001600160a01b0319821681179092556001600160a01b03167f8be0079c531659141344cd1fd0a4f28419497f9722a3daafe3b4186f6b6457e0600080a360ff196008541660085562000154620038ab565b6200015e620038ed565b60098152682bb0b93430b6b6b2b960b91b6020820152815262000180620038ed565b600c81526b28bab0b93a32b939ba30b33360a11b60208201526020820152620001a8620038ed565b600481526313585d5b60e21b60208201526040820152620001c8620038ed565b60048152634d61636560e01b60208201526060820152620001e8620038ed565b600481526321b63ab160e11b6020820152608082015262000208620038ed565b60068152654b6174616e6160d01b602082015260a08201526200022a620038ed565b60088152672330b631b434b7b760c11b602082015260c08201526200024e620038ed565b600881526729b1b4b6b4ba30b960c11b602082015260e082015262000272620038ed565b600a815269131bdb99c814dddbdc9960b21b602082015261010082015262000299620038ed565b600b81526a14da1bdc9d0814dddbdc9960aa1b6020820152610120820152620002c1620038ed565b600a81526911da1bdcdd0815d85b9960b21b6020820152610140820152620002e8620038ed565b600a81526911dc985d994815d85b9960b21b60208201526101608201526200030f620038ed565b6009815268109bdb994815d85b9960ba1b602082015261018082015262000335620038ed565b600481526315d85b9960e21b60208201526101a082015262000356620038ed565b60088152674772696d6f69726560c01b60208201526101c08201526200037b620038ed565b60098152684368726f6e69636c6560b81b60208201526101e0820152620003a1620038ed565b6004815263546f6d6560e01b6020820152610200820152620003c2620038ed565b6004815263426f6f6b60e01b6020820152610220820152600c546012600c558060121062003659575b50600c60009081527fdf6966c971051c3d54ec59162606531493a51404a002842f56009d7e5cf4a8c7915b60128210620035335762000429620038cc565b62000433620038ed565b600b81526a446976696e6520526f626560a81b6020820152815262000457620038ed565b600981526853696c6b20526f626560b81b602082015260208201526200047c620038ed565b600a8152694c696e656e20526f626560b01b60208201526040820152620004a2620038ed565b6004815263526f626560e01b60208201526060820152620004c2620038ed565b600581526414da1a5c9d60da1b60208201526080820152620004e3620038ed565b600a81526944656d6f6e204875736b60b01b602082015260a082015262000509620038ed565b601081526f223930b3b7b739b5b4b71020b936b7b960811b602082015260c082015262000535620038ed565b601581527f53747564646564204c6561746865722041726d6f720000000000000000000000602082015260e08201526200056e620038ed565b60128152712430b932102632b0ba3432b91020b936b7b960711b60208201526101008201526200059d620038ed565b600d81526c2632b0ba3432b91020b936b7b960991b6020820152610120820152620005c7620038ed565b600f81526e486f6c79204368657374706c61746560881b6020820152610140820152620005f3620038ed565b60118152704f726e617465204368657374706c61746560781b602082015261016082015262000621620038ed565b600a815269141b185d194813585a5b60b21b602082015261018082015262000648620038ed565b600a81526910da185a5b8813585a5b60b21b60208201526101a08201526200066f620038ed565b6009815268149a5b99c813585a5b60ba1b60208201526101c0820152600d54600f600d5580600f1062003483575b50600d600090815260008051602062008833833981519152915b600f82106200335d57620006ca620038cc565b620006d4620038ed565b600c81526b416e6369656e742048656c6d60a01b60208201528152620006f9620038ed565b600b81526a4f726e6174652048656c6d60a81b6020820152602082015262000720620038ed565b600a81526947726561742048656c6d60b01b6020820152604082015262000746620038ed565b600981526846756c6c2048656c6d60b81b602082015260608201526200076b620038ed565b600481526348656c6d60e01b602082015260808201526200078b620038ed565b600b81526a2232b6b7b71021b937bbb760a91b602082015260a0820152620007b2620038ed565b600e81526d223930b3b7b713b99021b937bbb760911b602082015260c0820152620007dc620038ed565b60078152660576172204361760cc1b602082015260e0820152620007ff620038ed565b600b81526a04c656174686572204361760ac1b602082015261010082015262000827620038ed565b600381526204361760ec1b602082015261012082015262000847620038ed565b600581526421b937bbb760d91b602082015261014082015262000869620038ed565b600b81526a111a5d9a5b9948121bdbd960aa1b602082015261016082015262000891620038ed565b600981526814da5b1ac8121bdbd960ba1b6020820152610180820152620008b7620038ed565b600a815269131a5b995b88121bdbd960b21b60208201526101a0820152620008de620038ed565b6004815263121bdbd960e21b60208201526101c0820152600e54600f600e5580600f10620032ad575b50600e600090815260008051602062008793833981519152915b600f8210620031875762000934620038cc565b6200093e620038ed565b600b81526a13dc9b985d194810995b1d60aa1b6020820152815262000962620038ed565b600881526715d85c8810995b1d60c21b6020820152602082015262000986620038ed565b600b81526a141b185d19590810995b1d60aa1b60208201526040820152620009ad620038ed565b600981526813595cda0810995b1d60ba1b60208201526060820152620009d2620038ed565b600a8152691219585d9e4810995b1d60b21b60208201526080820152620009f8620038ed565b600e81526d11195b5bdb9a1a59194810995b1d60921b602082015260a082015262000a22620038ed565b600f81526e111c9859dbdb9cdada5b8810995b1d608a1b602082015260c082015262000a4d620038ed565b601481527f53747564646564204c6561746865722042656c74000000000000000000000000602082015260e082015262000a86620038ed565b601181527012185c99081319585d1a195c8810995b1d607a1b602082015261010082015262000ab4620038ed565b600c81526b1319585d1a195c8810995b1d60a21b602082015261012082015262000add620038ed565b600f81526e084e4d2ced0e8e6d2d8d640a6c2e6d608b1b602082015261014082015262000b09620038ed565b60098152680a6d2d8d640a6c2e6d60bb1b602082015261016082015262000b2f620038ed565b60098152680aededed840a6c2e6d60bb1b602082015261018082015262000b55620038ed565b600a815269098d2dccadc40a6c2e6d60b31b60208201526101a082015262000b7c620038ed565b60048152630a6c2e6d60e31b60208201526101c0820152600f54600f805580600f10620030d7575b50600f6000908152600080516020620088f3833981519152915b600f821062002fb15762000bd1620038cc565b62000bdb620038ed565b600c81526b486f6c79204772656176657360a01b6020820152815262000c00620038ed565b600e81526d4f726e617465204772656176657360901b6020820152602082015262000c2a620038ed565b60078152664772656176657360c81b6020820152604082015262000c4d620038ed565b600b81526a436861696e20426f6f747360a81b6020820152606082015262000c74620038ed565b600b81526a486561767920426f6f747360a81b6020820152608082015262000c9b620038ed565b600f81526e44656d6f6e6869646520426f6f747360881b602082015260a082015262000cc6620038ed565b601081526f447261676f6e736b696e20426f6f747360801b602082015260c082015262000cf2620038ed565b601581527f53747564646564204c65617468657220426f6f74730000000000000000000000602082015260e082015262000d2b620038ed565b601281527148617264204c65617468657220426f6f747360701b602082015261010082015262000d5a620038ed565b600d81526c4c65617468657220426f6f747360981b602082015261012082015262000d84620038ed565b600f81526e446976696e6520536c69707065727360881b602082015261014082015262000db0620038ed565b600d81526c53696c6b20536c69707065727360981b602082015261016082015262000dda620038ed565b600a815269576f6f6c2053686f657360b01b602082015261018082015262000e01620038ed565b600b81526a4c696e656e2053686f657360a81b60208201526101a082015262000e29620038ed565b600581526453686f657360d81b60208201526101c0820152601054600f60105580600f1062002f01575b506010600090815260008051602062008893833981519152915b600f821062002ddb5762000e80620038cc565b62000e8a620038ed565b600e81526d486f6c79204761756e746c65747360901b6020820152815262000eb1620038ed565b601081526f4f726e617465204761756e746c65747360801b6020820152602082015262000edd620038ed565b60098152684761756e746c65747360b81b6020820152604082015262000f02620038ed565b600c81526b436861696e20476c6f76657360a01b6020820152606082015262000f2a620038ed565b600c81526b486561767920476c6f76657360a01b6020820152608082015262000f52620038ed565b600d81526c44656d6f6e27732048616e647360981b602082015260a082015262000f7b620038ed565b6011815270447261676f6e736b696e20476c6f76657360781b602082015260c082015262000fa8620038ed565b601681527f53747564646564204c65617468657220476c6f76657300000000000000000000602082015260e082015262000fe1620038ed565b601381527f48617264204c65617468657220476c6f7665730000000000000000000000000060208201526101008201526200101b620038ed565b600e81526d4c65617468657220476c6f76657360901b602082015261012082015262001046620038ed565b600d81526c446976696e6520476c6f76657360981b602082015261014082015262001070620038ed565b600b81526a53696c6b20476c6f76657360a81b602082015261016082015262001098620038ed565b600b81526a576f6f6c20476c6f76657360a81b6020820152610180820152620010c0620038ed565b600c81526b4c696e656e20476c6f76657360a01b60208201526101a0820152620010e9620038ed565b6006815265476c6f76657360d01b60208201526101c0820152601154600f60115580600f1062002d2b575b5060116000908152600080516020620087f3833981519152915b600f821062002c05576040516001600160401b036060820190811190821117620023ea576060810160405262001163620038ed565b60088152674e65636b6c61636560c01b6020820152815262001184620038ed565b6006815265105b5d5b195d60d21b60208201526020820152620011a6620038ed565b600781526614195b99185b9d60ca1b6020820152604082015260125460036012558060031062002b55575b5060126000908152600080516020620087b3833981519152915b6003821062002a2f576040516001600160401b0360a0820190811190821117620023ea5760a0810160405262001220620038ed565b6009815268476f6c642052696e6760b81b6020820152815262001242620038ed565b600b81526a53696c7665722052696e6760a81b6020820152602082015262001269620038ed565b600b81526a42726f6e7a652052696e6760a81b6020820152604082015262001290620038ed565b600d81526c506c6174696e756d2052696e6760981b60208201526060820152620012b9620038ed565b600d81526c546974616e69756d2052696e6760981b602082015260808201526013546005601355806005106200297f575b506013600090815260008051602062008853833981519152915b6005821062002859576040516001600160401b03610200820190811190821117620023ea5761020081016040526200133b620038ed565b600881526737b3102837bbb2b960c11b602082015281526200135c620038ed565b60098152686f66204769616e747360b81b6020820152602082015262001381620038ed565b60098152686f6620546974616e7360b81b60208201526040820152620013a6620038ed565b60088152671bd98814dada5b1b60c21b60208201526060820152620013ca620038ed565b600d81526c37b3102832b93332b1ba34b7b760991b60208201526080820152620013f3620038ed565b600d81526c6f66204272696c6c69616e636560981b602082015260a08201526200141c620038ed565b601081526f1bd988115b9b1a59da1d195b9b595b9d60821b602082015260c082015262001448620038ed565b600d81526c37b310283937ba32b1ba34b7b760991b602082015260e082015262001471620038ed565b600881526737b31020b733b2b960c11b602082015261010082015262001496620038ed565b60078152666f66205261676560c81b6020820152610120820152620014ba620038ed565b60078152666f66204675727960c81b6020820152610140820152620014de620038ed565b600a8152691bd988159a5d1c9a5bdb60b21b602082015261016082015262001505620038ed565b600a8152690decc40e8d0ca408cdef60b31b60208201526101808201526200152c620038ed565b600c81526b37b3102232ba32b1ba34b7b760a11b60208201526101a082015262001555620038ed565b600d81526c37b3102932b33632b1ba34b7b760991b60208201526101c08201526200157f620038ed565b600c81526b6f6620746865205477696e7360a01b60208201526101e0820152601454601060145580601010620027a9575b506014600090815260008051602062008873833981519152915b6010821062002683576040516001600160401b036108a0820190811190821117620023ea576108a0810160405262001601620038ed565b600581526441676f6e7960d81b602082015281526200161f620038ed565b600a81526941706f63616c7970736560b01b6020820152602082015262001645620038ed565b600a81526920b936b0b3b2b23237b760b11b602082015260408201526200166b620038ed565b60058152641099585cdd60da1b602082015260608201526200168c620038ed565b6008815267084cad0cadadee8d60c31b60208201526080820152620016b0620038ed565b6006815265109b1a59da1d60d21b602082015260a0820152620016d2620038ed565b6005815264109b1bdbd960da1b602082015260c0820152620016f3620038ed565b60078152664272616d626c6560c81b602082015260e082015262001716620038ed565b60098152684272696d73746f6e6560b81b60208201526101008201526200173c620038ed565b6005815264109c9bdbd960da1b60208201526101208201526200175e620038ed565b600781526621b0b93934b7b760c91b602082015261014082015262001782620038ed565b600981526843617461636c79736d60b81b6020820152610160820152620017a8620038ed565b60088152674368696d6572696360c01b6020820152610180820152620017cd620038ed565b6006815265436f7270736560d01b60208201526101a0820152620017f0620038ed565b600a81526921b7b9393ab83a34b7b760b11b60208201526101c082015262001817620038ed565b60098152682230b6b730ba34b7b760b91b60208201526101e08201526200183d620038ed565b6005815264088cac2e8d60db1b60208201526102008201526200185f620038ed565b60058152642232b6b7b760d91b602082015261022082015262001881620038ed565b60048152634469726560e01b6020820152610240820152620018a2620038ed565b6006815265223930b3b7b760d11b6020820152610260820152620018c5620038ed565b6005815264111c99585960da1b6020820152610280820152620018e7620038ed565b6004815263446f6f6d60e01b60208201526102a082015262001908620038ed565b60048152634475736b60e01b60208201526102c082015262001929620038ed565b60058152644561676c6560d81b60208201526102e08201526200194b620038ed565b600881526722b6b83cb932b0b760c11b602082015261030082015262001970620038ed565b60048152634661746560e01b602082015261032082015262001991620038ed565b6003815262466f6560e81b6020820152610340820152620019b1620038ed565b600481526347616c6560e01b6020820152610360820152620019d2620038ed565b600581526411da1bdd5b60da1b6020820152610380820152620019f4620038ed565b6005815264476c6f6f6d60d81b60208201526103a082015262001a16620038ed565b600581526408ed8f2e0d60db1b60208201526103c082015262001a38620038ed565b6005815264476f6c656d60d81b60208201526103e082015262001a5a620038ed565b60048152634772696d60e01b602082015261040082015262001a7b620038ed565b60048152634861746560e01b602082015261042082015262001a9c620038ed565b60058152644861766f6360d81b602082015261044082015262001abe620038ed565b60068152652437b737bab960d11b602082015261046082015262001ae1620038ed565b60068152652437b93937b960d11b602082015261048082015262001b04620038ed565b60088152674879706e6f74696360c01b60208201526104a082015262001b29620038ed565b600681526525b930b5b2b760d11b60208201526104c082015262001b4c620038ed565b6005815264098dec2e8d60db1b60208201526104e082015262001b6e620038ed565b60098152684d61656c7374726f6d60b81b602082015261050082015262001b94620038ed565b6004815263135a5b9960e21b602082015261052082015262001bb5620038ed565b60078152664d697261636c6560c81b602082015261054082015262001bd9620038ed565b6006815265135bdc989a5960d21b602082015261056082015262001bfc620038ed565b600881526727b13634bb34b7b760c11b602082015261058082015262001c21620038ed565b600981526813db9cdb185d59da1d60ba1b60208201526105a082015262001c47620038ed565b60048152632830b4b760e11b60208201526105c082015262001c68620038ed565b600b81526a50616e64656d6f6e69756d60a81b60208201526105e082015262001c90620038ed565b60078152660a0d0decadcd2f60cb1b602082015261060082015262001cb4620038ed565b6006815265506c6167756560d01b602082015261062082015262001cd7620038ed565b60048152635261676560e01b602082015261064082015262001cf8620038ed565b60078152665261707475726560c81b602082015261066082015262001d1c620038ed565b600481526352756e6560e01b602082015261068082015262001d3d620038ed565b600581526414dadd5b1b60da1b60208201526106a082015262001d5f620038ed565b600381526214dbdb60ea1b60208201526106c082015262001d7f620038ed565b600481526314dbdd5b60e21b60208201526106e082015262001da0620038ed565b6006815265536f72726f7760d01b602082015261070082015262001dc3620038ed565b600681526514dc1a5c9a5d60d21b602082015261072082015262001de6620038ed565b600581526453746f726d60d81b602082015261074082015262001e08620038ed565b600781526615195b5c195cdd60ca1b602082015261076082015262001e2c620038ed565b6007815266151bdc9b595b9d60ca1b602082015261078082015262001e50620038ed565b600981526856656e6765616e636560b81b60208201526107a082015262001e76620038ed565b6007815266566963746f727960c81b60208201526107c082015262001e9a620038ed565b60058152642b34b832b960d91b60208201526107e082015262001ebc620038ed565b60068152650acdee4e8caf60d31b602082015261080082015262001edf620038ed565b6003815262576f6560e81b602082015261082082015262001eff620038ed565b60058152640aee4c2e8d60db1b602082015261084082015262001f21620038ed565b60078152664c69676874277360c81b602082015261086082015262001f45620038ed565b600a8152695368696d6d6572696e6760b01b6020820152610880820152601554604560155580604510620025d3575b5060156000908152600080516020620087d3833981519152915b60458210620024ad5762001fa1620038ab565b62001fab620038ed565b600481526342616e6560e01b6020820152815262001fc8620038ed565b6004815263149bdbdd60e21b6020820152602082015262001fe8620038ed565b60048152634269746560e01b6020820152604082015262002008620038ed565b6004815263536f6e6760e01b6020820152606082015262002028620038ed565b60048152632937b0b960e11b6020820152608082015262002048620038ed565b6005815264047726173760dc1b602082015260a082015262002069620038ed565b600a815269125b9cdd1c9d5b595b9d60b21b602082015260c08201526200208f620038ed565b6004815263476c6f7760e01b602082015260e0820152620020af620038ed565b60068152652132b73232b960d11b6020820152610100820152620020d2620038ed565b6006815265536861646f7760d01b6020820152610120820152620020f5620038ed565b60078152662bb434b9b832b960c91b602082015261014082015262002119620038ed565b600581526414da1bdd5d60da1b60208201526101608201526200213b620038ed565b600581526411dc9bdddb60da1b60208201526101808201526200215d620038ed565b60048152632a32b0b960e11b60208201526101a08201526200217e620038ed565b60048152635065616b60e01b60208201526101c08201526200219f620038ed565b6004815263466f726d60e01b60208201526101e0820152620021c0620038ed565b600381526229bab760e91b6020820152610200820152620021e0620038ed565b600481526326b7b7b760e11b602082015261022082015260165460126016558060121062002400575b5060166000908152600080516020620088d3833981519152915b60128210620022b857336000908152600080516020620088b3833981519152602052604090205460ff161562002264575b604051614e2f9081620039648239f35b336000818152600080516020620088b383398151915260205260408120805460ff1916600117905581907f2f8788117e7eff1d82e926ec794901d17c78024a50270940304540a733656f0d8180a462002254565b80518051906001600160401b038211620023ea57620022d885546200390d565b601f8111620023a8575b50602090601f83116001146200233357928260019493602093869560009262002327575b5050600019600383901b1c191690841b1786555b0193019101909162002223565b01519050888062002306565b908560005260206000209160005b601f19851681106200238f575083602093600196938796938794601f1981161062002375575b505050811b0186556200231a565b015160001960f88460031b161c1916905588808062002367565b8282015184556001909301926020928301920162002341565b620023d890866000526020600020601f850160051c81019160208610620023df575b601f0160051c01906200394a565b85620022e2565b9091508190620023ca565b634e487b7160e01b600052604160045260246000fd5b6016600052600080516020620088d3833981519152017fd833147d7dc355ba459fc788f669e58cfaf9dc25ddcd0702e87d69c7b512429b5b81811062002447575062002209565b8062002456600192546200390d565b8062002465575b500162002438565b601f811183146200247d5750600081555b846200245d565b6200249d908260005283601f6020600020920160051c820191016200394a565b6000602081208183555562002476565b80518051906001600160401b038211620023ea57620024cd85546200390d565b601f81116200259d575b50602090601f8311600114620025285792826001949360209386956000926200251c575b5050600019600383901b1c191690841b1786555b0193019101909162001f8e565b015190508880620024fb565b908560005260206000209160005b601f198516811062002584575083602093600196938796938794601f198116106200256a575b505050811b0186556200250f565b015160001960f88460031b161c191690558880806200255c565b8282015184556001909301926020928301920162002536565b620025cc90866000526020600020601f850160051c81019160208610620023df57601f0160051c01906200394a565b85620024d7565b6015600052600080516020620087d3833981519152907f55f448fdea98c4d29eb340757ef0a66cd03dbb9538908a6a81d96026b71ec4ba5b81830181106200261d57505062001f74565b806200262c600192546200390d565b806200263b575b50016200260b565b601f81118314620026535750600081555b8562002633565b62002673908260005283601f6020600020920160051c820191016200394a565b600060208120818355556200264c565b80518051906001600160401b038211620023ea57620026a385546200390d565b601f811162002773575b50602090601f8311600114620026fe579282600194936020938695600092620026f2575b5050600019600383901b1c191690841b1786555b01930191019091620015ca565b015190508880620026d1565b908560005260206000209160005b601f19851681106200275a575083602093600196938796938794601f1981161062002740575b505050811b018655620026e5565b015160001960f88460031b161c1916905588808062002732565b828201518455600190930192602092830192016200270c565b620027a290866000526020600020601f850160051c81019160208610620023df57601f0160051c01906200394a565b85620026ad565b601460005260008051602062008873833981519152907fce6d7b5282bd9a3661ae061feed1dbda4e52ab073b1f9285be6e155d9c38d4fc5b8183018110620027f3575050620015b0565b8062002802600192546200390d565b8062002811575b5001620027e1565b601f81118314620028295750600081555b8562002809565b62002849908260005283601f6020600020920160051c820191016200394a565b6000602081208183555562002822565b80518051906001600160401b038211620023ea576200287985546200390d565b601f811162002949575b50602090601f8311600114620028d4579282600194936020938695600092620028c8575b5050600019600383901b1c191690841b1786555b0193019101909162001304565b015190508880620028a7565b908560005260206000209160005b601f198516811062002930575083602093600196938796938794601f1981161062002916575b505050811b018655620028bb565b015160001960f88460031b161c1916905588808062002908565b82820151845560019093019260209283019201620028e2565b6200297890866000526020600020601f850160051c81019160208610620023df57601f0160051c01906200394a565b8562002883565b601360005260008051602062008853833981519152907f66de8ffda797e3de9c05e8fc57b3bf0ec28a930d40b0d285d93c06501cf6a0955b8183018110620029c9575050620012ea565b80620029d8600192546200390d565b80620029e7575b5001620029b7565b601f81118314620029ff5750600081555b85620029df565b62002a1f908260005283601f6020600020920160051c820191016200394a565b60006020812081835555620029f8565b80518051906001600160401b038211620023ea5762002a4f85546200390d565b601f811162002b1f575b50602090601f831160011462002aaa57928260019493602093869560009262002a9e575b5050600019600383901b1c191690841b1786555b01930191019091620011eb565b01519050888062002a7d565b908560005260206000209160005b601f198516811062002b06575083602093600196938796938794601f1981161062002aec575b505050811b01865562002a91565b015160001960f88460031b161c1916905588808062002ade565b8282015184556001909301926020928301920162002ab8565b62002b4e90866000526020600020601f850160051c81019160208610620023df57601f0160051c01906200394a565b8562002a59565b6012600052600080516020620087b3833981519152907fbb8a6a4669ba250d26cd7a459eca9d215f8307e33aebe50379bc5a3617ec34475b818301811062002b9f575050620011d1565b8062002bae600192546200390d565b8062002bbd575b500162002b8d565b601f8111831462002bd55750600081555b8562002bb5565b62002bf5908260005283601f6020600020920160051c820191016200394a565b6000602081208183555562002bce565b80518051906001600160401b038211620023ea5762002c2585546200390d565b601f811162002cf5575b50602090601f831160011462002c8057928260019493602093869560009262002c74575b5050600019600383901b1c191690841b1786555b019301910190916200112e565b01519050888062002c53565b908560005260206000209160005b601f198516811062002cdc575083602093600196938796938794601f1981161062002cc2575b505050811b01865562002c67565b015160001960f88460031b161c1916905588808062002cb4565b8282015184556001909301926020928301920162002c8e565b62002d2490866000526020600020601f850160051c81019160208610620023df57601f0160051c01906200394a565b8562002c2f565b6011600052600080516020620087f3833981519152907f31ecc21a745e3968a04e9570e4425bc18fa8019c68028196b546d1669c200c775b818301811062002d7557505062001114565b8062002d84600192546200390d565b8062002d93575b500162002d63565b601f8111831462002dab5750600081555b8562002d8b565b62002dcb908260005283601f6020600020920160051c820191016200394a565b6000602081208183555562002da4565b80518051906001600160401b038211620023ea5762002dfb85546200390d565b601f811162002ecb575b50602090601f831160011462002e5657928260019493602093869560009262002e4a575b5050600019600383901b1c191690841b1786555b0193019101909162000e6d565b01519050888062002e29565b908560005260206000209160005b601f198516811062002eb2575083602093600196938796938794601f1981161062002e98575b505050811b01865562002e3d565b015160001960f88460031b161c1916905588808062002e8a565b8282015184556001909301926020928301920162002e64565b62002efa90866000526020600020601f850160051c81019160208610620023df57601f0160051c01906200394a565b8562002e05565b601060005260008051602062008893833981519152907f1b6847dc741a1b0cd08d278845f9d819d87b734759afb55fe2de5cb82a9ae6815b818301811062002f4b57505062000e53565b8062002f5a600192546200390d565b8062002f69575b500162002f39565b601f8111831462002f815750600081555b8562002f61565b62002fa1908260005283601f6020600020920160051c820191016200394a565b6000602081208183555562002f7a565b80518051906001600160401b038211620023ea5762002fd185546200390d565b601f8111620030a1575b50602090601f83116001146200302c57928260019493602093869560009262003020575b5050600019600383901b1c191690841b1786555b0193019101909162000bbe565b01519050888062002fff565b908560005260206000209160005b601f198516811062003088575083602093600196938796938794601f198116106200306e575b505050811b01865562003013565b015160001960f88460031b161c1916905588808062003060565b828201518455600190930192602092830192016200303a565b620030d090866000526020600020601f850160051c81019160208610620023df57601f0160051c01906200394a565b8562002fdb565b600f600052600080516020620088f3833981519152907f8d1108e10bcb7c27dddfc02ed9d693a074039d026cf4ea4240b40f7d581ac8115b81830181106200312157505062000ba4565b8062003130600192546200390d565b806200313f575b50016200310f565b601f81118314620031575750600081555b8562003137565b62003177908260005283601f6020600020920160051c820191016200394a565b6000602081208183555562003150565b80518051906001600160401b038211620023ea57620031a785546200390d565b601f811162003277575b50602090601f831160011462003202579282600194936020938695600092620031f6575b5050600019600383901b1c191690841b1786555b0193019101909162000921565b015190508880620031d5565b908560005260206000209160005b601f19851681106200325e575083602093600196938796938794601f1981161062003244575b505050811b018655620031e9565b015160001960f88460031b161c1916905588808062003236565b8282015184556001909301926020928301920162003210565b620032a690866000526020600020601f850160051c81019160208610620023df57601f0160051c01906200394a565b85620031b1565b600e60005260008051602062008793833981519152907fbb7b4a454dc3493923482f07822329ed19e8244eff582cc204f8554c3620c40c5b8183018110620032f757505062000907565b8062003306600192546200390d565b8062003315575b5001620032e5565b601f811183146200332d5750600081555b856200330d565b6200334d908260005283601f6020600020920160051c820191016200394a565b6000602081208183555562003326565b80518051906001600160401b038211620023ea576200337d85546200390d565b601f81116200344d575b50602090601f8311600114620033d8579282600194936020938695600092620033cc575b5050600019600383901b1c191690841b1786555b01930191019091620006b7565b015190508880620033ab565b908560005260206000209160005b601f198516811062003434575083602093600196938796938794601f198116106200341a575b505050811b018655620033bf565b015160001960f88460031b161c191690558880806200340c565b82820151845560019093019260209283019201620033e6565b6200347c90866000526020600020601f850160051c81019160208610620023df57601f0160051c01906200394a565b8562003387565b600d60005260008051602062008833833981519152907fd7b6990105719101dabeb77144f2a3385c8033acd3af97e9423a695e81ad1ec45b8183018110620034cd5750506200069d565b80620034dc600192546200390d565b80620034eb575b5001620034bb565b601f81118314620035035750600081555b85620034e3565b62003523908260005283601f6020600020920160051c820191016200394a565b60006020812081835555620034fc565b80518051906001600160401b038211620023ea576200355385546200390d565b601f811162003623575b50602090601f8311600114620035ae579282600194936020938695600092620035a2575b5050600019600383901b1c191690841b1786555b0193019101909162000416565b01519050388062003581565b908560005260206000209160005b601f19851681106200360a575083602093600196938796938794601f19811610620035f0575b505050811b01865562003595565b015160001960f88460031b161c19169055388080620035e2565b82820151845560019093019260209283019201620035bc565b6200365290866000526020600020601f850160051c81019160208610620023df57601f0160051c01906200394a565b386200355d565b600c6000527fdf6966c971051c3d54ec59162606531493a51404a002842f56009d7e5cf4a8c7907fdf6966c971051c3d54ec59162606531493a51404a002842f56009d7e5cf4a8d95b8183018110620036b4575050620003eb565b80620036c3600192546200390d565b80620036d2575b5001620036a2565b601f81118314620036ea5750600081555b38620036ca565b6200370a908260005283601f6020600020920160051c820191016200394a565b60006020812081835555620036e3565b015190503880620000e7565b601f19821692600160005260206000209160005b85811062003777575083600195106200375d575b505050811b01600155620000fd565b015160001960f88460031b161c191690553880806200374e565b919260206001819286850151815501940192016200373a565b6001600052620037dc907fb10e2d527612073b26eecdfd717e6a320cf44b4afac2b0732d9fcbe2b7fa0cf6601f840160051c81019160208510620023df57601f0160051c01906200394a565b38620000cb565b0151905038806200008d565b6000808052601f19831694600080516020620088138339815191529290915b8681106200384c575083600195961062003832575b505050811b01600055620000a3565b015160001960f88460031b161c1916905538808062003823565b919260206001819286850151815501940192016200380e565b600080526200389f9060008051602062008813833981519152601f840160051c81019160208510620023df57601f0160051c01906200394a565b3862000070565b600080fd5b6040519061024082016001600160401b03811183821017620023ea57604052565b604051906101e082016001600160401b03811183821017620023ea57604052565b60408051919082016001600160401b03811183821017620023ea57604052565b90600182811c921680156200393f575b60208310146200392957565b634e487b7160e01b600052602260045260246000fd5b91607f16916200391d565b81811062003956575050565b600081556001016200394a56fe608080604052600436101561001357600080fd5b60003560e01c90816301ffc9a7146135e75750806306fdde0314613544578063081812fc14613526578063095ea7b3146133ac5780630e99990d1461338d57806323b872dd14613369578063248a9ca31461333a57806326079a4d1461326f578063286a6e6a1461322b5780632f2ff15d1461317857806336568abe146130e65780633f4ba83a1461305257806342842e0e1461301f5780634e3742d314612ff05780634f64b2be14612f1f57806351585b4914612ee95780635c975abb14612ec65780636352211e14612e9657806367209aa814612e7757806370a0823114612de0578063715018a614612d835780637ad5325c14612d4e5780637df90fa214612d115780638456cb5914612cb7578063853074621461264c5780638da5cb5b1461262357806391d14854146125d657806395d89b411461250b5780639720c969146124ec5780639bdc1b69146124cd5780639e303bb21461249c5780639e41b73f1461247d578063a1fae8c814612447578063a217fddf1461242b578063a22cb46514612359578063b55991c014612326578063b88d4fde146122a1578063bb47c9b314612246578063c08a5dd514612227578063c87b56dd1461053d578063cff840f014610507578063d47f269e146104e8578063d5391393146104ad578063d547741f1461046c578063de67bef5146103fd578063df34dd22146103c7578063e0d4ea371461039b578063e985e9c514610345578063ef68075a1461030e5763f2fde38b1461024557600080fd5b346103095760203660031901126103095761025e6136b4565b610266613a4b565b6001600160a01b039081169081156102b557600654826001600160601b0360a01b821617600655167f8be0079c531659141344cd1fd0a4f28419497f9722a3daafe3b4186f6b6457e0600080a3005b60405162461bcd60e51b815260206004820152602660248201527f4f776e61626c653a206e6577206f776e657220697320746865207a65726f206160448201526564647265737360d01b6064820152608490fd5b600080fd5b346103095760203660031901126103095761034161032d60043561424b565b60405191829160208352602083019061368f565b0390f35b346103095760403660031901126103095761035e6136b4565b6103666136ca565b9060018060a01b03809116600052600560205260406000209116600052602052602060ff604060002054166040519015158152f35b3461030957602036600319011261030957600435600052600a6020526020604060002054604051908152f35b3461030957602036600319011261030957600435600052600a602052602061ffff60016040600020015460101c16604051908152f35b346103095760208060031936011261030957600435600052600a8152610429600c604060002001614642565b906040519181839283018184528251809152816040850193019160005b82811061045557505050500390f35b835185528695509381019392810192600101610446565b34610309576040366003190112610309576104ab60043561048b6136ca565b908060005260076020526104a6600160406000200154613821565b6139d5565b005b346103095760003660031901126103095760206040517f9f2df0fed2c77648de5860a4cc508cd0818c85b8b8a1ab4ceeef8d981c8956a68152f35b346103095760203660031901126103095761034161032d60043561448f565b3461030957602036600319011261030957600435600052600a602052602061ffff60016040600020015460301c16604051908152f35b3461030957602036600319011261030957600435600052600a60205260406000206040519061024082018281106001600160401b03821117612203576040528054825261ffff60018201548181166020850152818160101c166040850152818160201c166060850152818160301c166080850152818160401c1660a085015260501c1660c083015260405161ffff60028301548181168352818160101c166020840152818160201c166040840152818160301c166060840152818160401c16608084015260501c1660a08201528060c08101106001600160401b0360c0830111176122035760c0810160405260e083015260405160ff60038301548181168352818160081c166020840152818160101c16604084015260181c1660608201528060808101106001600160401b036080830111176122035760808101604052610100830152600481015461012083015260058101546101408301526006810154610160830152600781015461018083015260088101546101a083015260098101546101c0830152600a8101546101e0830152600b8101546102008301526106e590600c01614642565b61022082015260405190816103808101106001600160401b036103808401111761220357610380820160405260005b61038081106122195750604051806101208101106001600160401b0361012083011117612203576101208101604090815260fd82527f3c73766720786d6c6e733d22687474703a2f2f7777772e77332e6f72672f323060208301527f30302f73766722207072657365727665417370656374526174696f3d22784d69908201527f6e594d696e206d656574222076696577426f783d22302030203335302033353060608201527f223e3c7374796c653e2e62617365207b2066696c6c3a2077686974653b20666f60808201527f6e742d66616d696c793a2073657269663b20666f6e742d73697a653a2031347060a08201527f783b207d3c2f7374796c653e3c726563742077696474683d223130302522206860c08201527f65696768743d2231303025222066696c6c3d22626c61636b22202f3e3c74657860e08201527f7420783d2231302220793d2232302220636c6173733d2262617365223e0000006101008201528252805161088690614b6c565b602083015260405161089781613730565b60288152602081017f3c2f746578743e3c7465787420783d2231302220793d2234302220636c6173739052671e913130b9b2911f60c11b60408201526040830152602081015161ffff166108ea90614b6c565b604082015161ffff166108fc90614b6c565b90606083015161ffff1661090f90614b6c565b6040519282849351908160208601916020019161092b9261366c565b808401602001602f60f81b90528151918282860160210191602001916109509261366c565b8181850101602101602f60f81b905282519283838387010160220191602001916109799261366c565b83010101036002810182526022016109919082613781565b6060830152608081015161ffff166109a890614b6c565b60a082015161ffff166109ba90614b6c565b9060c083015161ffff166109cd90614b6c565b60405192839260208401602f60f81b9052805190816021860191602001916109f49261366c565b830160218101602f60f81b905281519182602283019160200191610a179261366c565b818101602201602f60f81b9052825192838383016023019160200191610a3c9261366c565b010103600381018252602301610a529082613781565b6080830152604051610a6381613730565b602881527f3c2f746578743e3c7465787420783d2231302220793d2236302220636c6173736020820152671e913130b9b2911f60c11b604082015260a083015260e081015151610ab69061ffff16614b6c565b60e08201516020015161ffff16610acc90614b6c565b9060e08301516040015161ffff16610ae390614b6c565b60e08401516060015161ffff16610af990614b6c565b9060405193838594519081602087019160200191610b169261366c565b840160208101602f60f81b905281519182602183019160200191610b399261366c565b0160218101602f60f81b905281519182602283019160200191610b5b9261366c565b0160228101602f60f81b905281519182602383019160200191610b7d9261366c565b0160238101602f60f81b905203600481018252602401610b9d9082613781565b60c083015260e08101516080015161ffff16610bb890614b6c565b60e082015160a0015161ffff16610bce90614b6c565b906101008301515160ff16610be290614b6c565b6101008401516020015160ff16610bf890614b6c565b9060405193838594519081602087019160200191610c159261366c565b840160208101602f60f81b905281519182602183019160200191610c389261366c565b0160218101602f60f81b905281519182602283019160200191610c5a9261366c565b0160228101602f60f81b905281519182602383019160200191610c7c9261366c565b0160238101602f60f81b905203600481018252602401610c9c9082613781565b60e08301526101008101516040015160ff16610cb790614b6c565b6101008201516060015160ff16610ccd90614b6c565b9060405191818392519081602085019160200191610cea9261366c565b820160208101602f60f81b905281519182602183019160200191610d0d9261366c565b0103600181018252602101610d229082613781565b610100830152604051610d3481613730565b60288152602081017f3c2f746578743e3c7465787420783d2231302220793d2238302220636c6173739052671e913130b9b2911f60c11b6040820152610120830152600435600052600a6020526040600020600c0154610d9390614b6c565b610140830152604051610da581613730565b602981527f3c2f746578743e3c7465787420783d2231302220793d223132302220636c6173602082015268399e913130b9b2911f60b91b6040820152610160830152610df26004356141ba565b610180830152604051610e0481613730565b602981527f3c2f746578743e3c7465787420783d2231302220793d223134302220636c6173602082015268399e913130b9b2911f60b91b60408201526101a0830152610e5160043561424b565b6101c0830152604051610e6381613730565b602981527f3c2f746578743e3c7465787420783d2231302220793d223136302220636c6173602082015268399e913130b9b2911f60b91b60408201526101e0830152610eb06004356142dc565b610200830152604051610ec281613730565b602981527f3c2f746578743e3c7465787420783d2231302220793d223138302220636c6173602082015268399e913130b9b2911f60b91b6040820152610220830152610f0f60043561436d565b610240830152604051610f2181613730565b602981527f3c2f746578743e3c7465787420783d2231302220793d223230302220636c6173602082015268399e913130b9b2911f60b91b6040820152610260830152610f6e6004356143fe565b610280830152604051610f8081613730565b602981527f3c2f746578743e3c7465787420783d2231302220793d223232302220636c6173602082015268399e913130b9b2911f60b91b60408201526102a0830152610fcd60043561448f565b6102c0830152604051610fdf81613730565b602981527f3c2f746578743e3c7465787420783d2231302220793d223234302220636c6173602082015268399e913130b9b2911f60b91b60408201526102e083015261102c600435614520565b61030083015260405161103e81613730565b602981527f3c2f746578743e3c7465787420783d2231302220793d223236302220636c6173602082015268399e913130b9b2911f60b91b604082015261032083015261108b6004356145b1565b61034083015260405161109d8161374b565b600d8152602081016c1e17ba32bc3a1f1e17b9bb339f60991b905261036083015281519060208301519160408401516060850151608086015160a087015160c08801519160e0890151936101008a01519560405199888b9951908160208c01916020019161110a9261366c565b8901815191826020830191602001916111229261366c565b01815191826020830191602001916111399261366c565b01815191826020830191602001916111509261366c565b01815191826020830191602001916111679261366c565b018151918260208301916020019161117e9261366c565b01815191826020830191602001916111959261366c565b01815191826020830191602001916111ac9261366c565b01815191826020830191602001916111c39261366c565b01038083526020016111d59083613781565b610120830151916101408401516101608501516101808601516101a08701516101c0880151916101e0890151936102008a01519560405199888b9951908160208c0191602001916112259261366c565b89018151918260208301916020019161123d9261366c565b01815191826020830191602001916112549261366c565b018151918260208301916020019161126b9261366c565b01815191826020830191602001916112829261366c565b01815191826020830191602001916112999261366c565b01815191826020830191602001916112b09261366c565b01815191826020830191602001916112c79261366c565b01815191826020830191602001916112de9261366c565b01038083526020016112f09083613781565b610220830151916102408401516102608501516102808601516102a08701516102c0880151916102e0890151936103008a01519560405199888b9951908160208c0191602001916113409261366c565b8901815191826020830191602001916113589261366c565b018151918260208301916020019161136f9261366c565b01815191826020830191602001916113869261366c565b018151918260208301916020019161139d9261366c565b01815191826020830191602001916113b49261366c565b01815191826020830191602001916113cb9261366c565b01815191826020830191602001916113e29261366c565b01815191826020830191602001916113f99261366c565b010380835260200161140b9083613781565b61032083015191610340840151610360850151906040519483869451908160208701916020019161143b9261366c565b8401815191826020830191602001916114539261366c565b018151918260208301916020019161146a9261366c565b01815191826020830191602001916114819261366c565b01038083526020016114939083613781565b604051926114a08461374b565b600284526020840161016160f51b90526020810151604051906114c28261374b565b60048252631cd9595960e21b60208301526114dc91614caf565b602083015161ffff16604051906114f28261374b565b60048252633a3ab93760e11b602083015261150c91614d2e565b90604084015161ffff16604051906115238261374b565b600582526406d617848760dc1b602083015261153e91614d2e565b606085015161ffff16604051906115548261374b565b6009825268063757272656e7448760bc1b602083015261157391614d2e565b9060405193849360208501605b60f81b90528051908160218701916020019161159b9261366c565b89519085016115b1826021830160208e0161366c565b01815191826021830191602001916115c89261366c565b895191016115dd826021830160208d0161366c565b01815191826021830191602001916115f49261366c565b88519101611609826021830160208c0161366c565b01815191826021830191602001916116209261366c565b87519101611635826021830160208b0161366c565b010360018101825260210161164a9082613781565b608083015161ffff16604051906116608261374b565b600682526561747461636b60d01b602083015261167c91614d2e565b9060a084015161ffff16604051906116938261374b565b6007825266646566656e636560c81b60208301526116b091614d2e565b60c085015161ffff16604051906116c68261374b565b60088252677265636f7665727960c01b60208301526116e491614d2e565b61022086015151604051906116f88261374b565b600a825269636f756e7452656c696360b01b602083015261171891614d2e565b91604051948486955190816020880191602001916117359261366c565b85018151918260208301916020019161174d9261366c565b8a519101611762826020808401908e0161366c565b01815191826020830191602001916117799261366c565b8951910161178e826020808401908d0161366c565b01815191826020830191602001916117a59261366c565b885191016117ba826020808401908c0161366c565b01815191826020830191602001916117d19261366c565b875191016117e6826020808401908b0161366c565b01038082526020016117f89082613781565b60e08301515161ffff166040519061180f8261374b565b600b82526a636f756e74456e656d793160a81b602083015261183091614d2e565b9060e08401516020015161ffff166040519061184b8261374b565b600b82526a31b7bab73a22b732b6bc9960a91b602083015261186c91614d2e565b60e08501516040015161ffff16604051906118868261374b565b600b82526a636f756e74456e656d793360a81b60208301526118a791614d2e565b60e08601516060015161ffff16604051906118c18261374b565b600b82526a18dbdd5b9d115b995b5e4d60aa1b60208301526118e291614d2e565b91604051948486955190816020880191602001916118ff9261366c565b8501815191826020830191602001916119179261366c565b8a51910161192c826020808401908e0161366c565b01815191826020830191602001916119439261366c565b89519101611958826020808401908d0161366c565b018151918260208301916020019161196f9261366c565b88519101611984826020808401908c0161366c565b018151918260208301916020019161199b9261366c565b875191016119b0826020808401908b0161366c565b01038082526020016119c29082613781565b60e08301516080015161ffff16604051906119dc8261374b565b600b82526a636f756e74456e656d793560a81b60208301526119fd91614d2e565b9060e084015160a0015161ffff1660405190611a188261374b565b600b82526a31b7bab73a22b732b6bc9b60a91b6020830152611a3991614d2e565b6101008501515160ff1660405190611a508261374b565b600a825269636f756e74426f73733160b01b6020830152611a7091614d2e565b6101008601516020015160ff1660405190611a8a8261374b565b600a82526931b7bab73a2137b9b99960b11b6020830152611aaa91614d2e565b9160405194848695519081602088019160200191611ac79261366c565b850181519182602083019160200191611adf9261366c565b8a519101611af4826020808401908e0161366c565b0181519182602083019160200191611b0b9261366c565b89519101611b20826020808401908d0161366c565b0181519182602083019160200191611b379261366c565b88519101611b4c826020808401908c0161366c565b0181519182602083019160200191611b639261366c565b87519101611b78826020808401908b0161366c565b0103808252602001611b8a9082613781565b6101008301516040015160ff1660405190611ba48261374b565b600a825269636f756e74426f73733360b01b6020830152611bc491614d2e565b9261010001516060015160ff1660405190611bde8261374b565b600a82526918dbdd5b9d109bdcdccd60b21b6020830152611bfe91614d2e565b61018083015160405190611c118261374b565b60068252653bb2b0b837b760d11b6020830152611c2d91614caf565b6101c084015160405190611c408261374b565b600582526418da195cdd60da1b6020830152611c5b91614caf565b9160405195848795519081602088019160200191611c789261366c565b850181519182602083019160200191611c909261366c565b89519101611ca5826020808401908d0161366c565b0181519182602083019160200191611cbc9261366c565b88519101611cd1826020808401908c0161366c565b0181519182602083019160200191611ce89261366c565b87519101611cfd826020808401908b0161366c565b0181519182602083019160200191611d149261366c565b86519101611d29826020808401908a0161366c565b0103808352602001611d3b9083613781565b61020081015160405190611d4e8261374b565b60048252631a19585960e21b6020830152611d6891614caf565b9161024082015160405190611d7c8261374b565b60058252641dd85a5cdd60da1b6020830152611d9791614caf565b61028083015160405190611daa8261374b565b6004825263199bdbdd60e21b6020830152611dc491614caf565b6102c084015160405190611dd78261374b565b60048252631a185b9960e21b6020830152611df191614caf565b9160405195848795519081602088019160200191611e0e9261366c565b850181519182602083019160200191611e269261366c565b89519101611e3b826020808401908d0161366c565b0181519182602083019160200191611e529261366c565b88519101611e67826020808401908c0161366c565b0181519182602083019160200191611e7e9261366c565b87519101611e93826020808401908b0161366c565b0181519182602083019160200191611eaa9261366c565b86519101611ebf826020808401908a0161366c565b0103808352602001611ed19083613781565b61030081015160405190611ee48261374b565b60088252676e65636b6c61636560c01b6020830152611f0291614caf565b90610340015160405190611f158261374b565b600482526372696e6760e01b6020830152611f2f91614caf565b6040519485926020840194858151602081930191611f4c9261366c565b840181519182602083019160200191611f649261366c565b0181519182602083019160200191611f7b9261366c565b0181519182602083019160200191611f929261366c565b0160208101605d60f81b905203600181018452602101611fb29084613781565b611fbd600435614b6c565b91611fc790614a26565b90604051938493602085017f7b226e616d65223a20224c6f6f7420627920526f67756520230000000000000090528051908160398701916020019161200b9261366c565b7f222c20226465736372697074696f6e223a20224c6f6f7420627920526f6775656039918601918201527f206973206120636f6c6c656374696f6e206f66207472656173757265206f627460598201527f61696e6564207468726f75676820706c6179696e672074686520526f6775652060798201527f67616d652c207365637572656420616e642073746f726564206f6e207468652060998201527f626c6f636b636861696e2e204665656c206672656520746f20757365204c6f6f60b98201527f7420696e20616e792077617920796f752077616e742e222c202261747472696260d98201526603aba32b9911d160cd1b60f982015290519161211790839061010084019061366c565b0161010081017f2c2022696d616765223a2022646174613a696d6167652f7376672b786d6c3b629052610120810165185cd94d8d0b60d21b90528151906101269282848301916020019161216a9261366c565b019061227d60f01b9082015203610108810182526101280161218c9082613781565b61219590614a26565b6040518091602082017f646174613a6170706c69636174696f6e2f6a736f6e3b6261736536342c000000905280519081603d840191602001916121d79261366c565b810103601d81018252603d016121ed9082613781565b604051809160208252602082016103419161368f565b634e487b7160e01b600052604160045260246000fd5b606083820152602001610714565b346103095760203660031901126103095761034161032d6004356145b1565b34610309576122543661380b565b90600052600a602052604060002090600681101561228b5761ffff60026020938360041c01015460f06040519360041b161c168152f35b634e487b7160e01b600052603260045260246000fd5b34610309576080366003190112610309576122ba6136b4565b6122c26136ca565b90606435906044356001600160401b0383116103095736602384011215610309576104ab936122fe6123219436906024816004013591016137d4565b9261231161230c8433613d08565b613c33565b61231c838383613dd0565b614009565b613ce8565b3461030957602036600319011261030957600435600052600a602052602061ffff60016040600020015416604051908152f35b34610309576040366003190112610309576123726136b4565b60243590811515809203610309576001600160a01b0316903382146123e657336000526005602052604060002082600052602052604060002060ff1981541660ff83161790556040519081527f17307eab39ab6107e8899845ad3d59bd9653f200f220920489ca2b5937696c3160203392a3005b60405162461bcd60e51b815260206004820152601960248201527f4552433732313a20617070726f766520746f2063616c6c6572000000000000006044820152606490fd5b3461030957600036600319011261030957602060405160008152f35b3461030957602036600319011261030957600435600052600a602052602061ffff60016040600020015460501c16604051908152f35b346103095760203660031901126103095761034161032d6004356141ba565b3461030957602036600319011261030957600435600052600b602052602060ff604060002054166040519015158152f35b346103095760203660031901126103095761034161032d60043561436d565b346103095760203660031901126103095761034161032d6004356142dc565b34610309576000366003190112610309576040516000600180549061252f82613b15565b808552918181169081156125af5750600114612556575b6103418461032d81860382613781565b600081815292507fb10e2d527612073b26eecdfd717e6a320cf44b4afac2b0732d9fcbe2b7fa0cf65b82841061259757505050810160200161032d82612546565b8054602085870181019190915290930192810161257f565b60ff191660208087019190915292151560051b8501909201925061032d9150839050612546565b34610309576040366003190112610309576125ef6136ca565b600435600052600760205260406000209060018060a01b0316600052602052602060ff604060002054166040519015158152f35b34610309576000366003190112610309576006546040516001600160a01b039091168152602090f35b3461030957600319604036820112610309576126666136b4565b906001600160401b0360243511610309576103409060243536030112610309573360009081527fa4bfd7afe708e2e87e7f0e2ad9b4d545417e0f795f57b5c5ab5d799c565a04f460205260409020547f9f2df0fed2c77648de5860a4cc508cd0818c85b8b8a1ab4ceeef8d981c8956a69060ff1615612b22575060243560040135600052600b60205260ff60406000205416612ae75760243560040135600052600b6020526040600020600160ff198254161790556001600954018060095580600052600a60205260406000206024356004013581556001810161ffff612750602480350161415f565b1681549063ffff000061276760446024350161415f565b60101b1665ffff0000000061278060646024350161415f565b60201b1667ffff00000000000061279b60846024350161415f565b60301b169169ffff00000000000000006127b960a46024350161415f565b60401b169361ffff60501b6127d260243560c40161415f565b60501b16956001600160601b031916171717171717905560e46024350160009060005b60068110612abb575050600282015560006024356101a401815b60048110612a8c575050600382015560243561022481013560048301556102448101356005830155610264810135600683015561028481013560078301556102a481013560088301556102c481013560098301556102e4810135600a830155610304810135600b830155600c90910190610324810135903603602219018112156103095760243501906004820135916001600160401b038311610309576024018260051b3603811361030957680100000000000000008311612203578154838355808410612a63575b5090600052602060002060005b838110612a4f578585604051906128fb82613715565b600082526001600160a01b0383168015612a0b57612321606093837fc1d5212106ef3922cc11d6ae56225a2bb1e6bb9f0a28d6f9574b55ef1be840cb96816129f09561296561295f83600052600260205260018060a01b0360406000205416151590565b1561416e565b61296d614db5565b600082815260026020526040902054612990906001600160a01b0316151561295f565b8060005260036020526040600020600181540190558160005260026020526040600020816001600160601b0360a01b82541617905560007fddf252ad1be2c89b69c2b068fc378daa952ba7f163c4a11628f55a4df523b3ef8180a4613ee9565b604051903382526020820152602435600401356040820152a1005b606460405162461bcd60e51b815260206004820152602060248201527f4552433732313a206d696e7420746f20746865207a65726f20616464726573736044820152fd5b6001906020843594019381840155016128e5565b8260005283602060002091820191015b818110612a8057506128d8565b60008155600101612a73565b909182359060ff82168203610309576001916020918460031b60ff811b9283911b16911916179301910161280f565b90916020600191612acb8561415f565b908460041b61ffff811b9283911b1691191617930191016127f5565b60405162461bcd60e51b8152602060048201526013602482015272105b1c9958591e481b5a5b9d1959081cd95959606a1b6044820152606490fd5b612b2b336140a5565b60405191612b3883613766565b604283526020830190606036833783511561228b5760308253835160019081101561228b57607860218601536041905b808211612c5d575050612c19576048612be692612bf592612c159560405195869376020b1b1b2b9b9a1b7b73a3937b61d1030b1b1b7bab73a1604d1b6020860152612bbd81518092602060378901910161366c565b8401917001034b99036b4b9b9b4b733903937b6329607d1b60378401525180938684019061366c565b01036028810184520182613781565b60405162461bcd60e51b815260206004820152918291602483019061368f565b0390fd5b606460405162461bcd60e51b815260206004820152602060248201527f537472696e67733a20686578206c656e67746820696e73756666696369656e746044820152fd5b9091600f8116601081101561228b576f181899199a1a9b1b9c1cb0b131b232b360811b901a612c8c8488614094565b5360041c918015612ca1576000190190612b68565b634e487b7160e01b600052601160045260246000fd5b3461030957600036600319011261030957612cd0613a4b565b612cd8614db5565b600160ff1960085416176008557f62e78cea01bee320cd4e420270b5ea74000d11b0c9f74754ebdbfc544b05a2586020604051338152a1005b3461030957612d1f3661380b565b90600052600a602052600c60406000200190815481101561228b57602091600052816000200154604051908152f35b3461030957602036600319011261030957600435600052600a602052602061ffff600160406000200154821c16604051908152f35b3461030957600036600319011261030957612d9c613a4b565b600680546001600160a01b031981169091556000906001600160a01b03167f8be0079c531659141344cd1fd0a4f28419497f9722a3daafe3b4186f6b6457e08280a3005b34610309576020366003190112610309576001600160a01b03612e016136b4565b168015612e205760005260036020526020604060002054604051908152f35b60405162461bcd60e51b815260206004820152602960248201527f4552433732313a2061646472657373207a65726f206973206e6f7420612076616044820152683634b21037bbb732b960b91b6064820152608490fd5b346103095760203660031901126103095761034161032d600435614520565b34610309576020366003190112610309576020612eb4600435613aef565b6040516001600160a01b039091168152f35b3461030957600036600319011261030957602060ff600854166040519015158152f35b3461030957602036600319011261030957600435600052600a602052602061ffff60016040600020015460401c16604051908152f35b3461030957602036600319011261030957600435600052600a6020526101e06040600020805490600181015490600481015460058201546006830154600784015490600885015492600986015494600b600a88015497015497604051998a5261ffff9081811660208c0152818160101c1660408c0152818160201c1660608c0152818160301c1660808c0152818160401c1660a08c015260501c1660c08a015260e08901526101008801526101208701526101408601526101608501526101808401526101a08301526101c0820152f35b3461030957602036600319011261030957600435600052600a6020526020600c60406000200154604051908152f35b34610309576104ab612321613033366136e0565b906040519261304184613715565b6000845261231161230c8433613d08565b346103095760003660031901126103095761306b613a4b565b60085460ff8116156130aa5760ff19166008557f5db9ee0a495bf2e6ff9c91a7834c1ba4fdd244a5e8aa4e537bd38aeae4b073aa6020604051338152a1005b60405162461bcd60e51b815260206004820152601460248201527314185d5cd8589b194e881b9bdd081c185d5cd95960621b6044820152606490fd5b34610309576040366003190112610309576130ff6136ca565b336001600160a01b0382160361311b576104ab906004356139d5565b60405162461bcd60e51b815260206004820152602f60248201527f416363657373436f6e74726f6c3a2063616e206f6e6c792072656e6f756e636560448201526e103937b632b9903337b91039b2b63360891b6064820152608490fd5b34610309576040366003190112610309576004356131946136ca565b8160005260076020526131ae600160406000200154613821565b81600052600760205260406000209060018060a01b0316908160005260205260ff60406000205416156131dd57005b8160005260076020526040600020816000526020526040600020600160ff1982541617905533917f2f8788117e7eff1d82e926ec794901d17c78024a50270940304540a733656f0d600080a4005b34610309576132393661380b565b90600052600a602052604060002090600481101561228b5760ff60036020938360051c01015460f86040519360031b161c168152f35b3461030957604036600319011261030957602480356001600160401b03918282116103095736602383011215610309578160040135906132ae826137a2565b916132bc6040519384613781565b808352602094828685019260051b8601019436861161030957838101925b86841061330357876132ee876004356146b1565b9061034160405192828493845283019061368f565b83358381116103095782013660438201121561030957889161332f8392369060448a82013591016137d4565b8152019301926132da565b346103095760203660031901126103095760043560005260076020526020600160406000200154604051908152f35b34610309576104ab61337a366136e0565b9161338861230c8433613d08565b613dd0565b346103095760203660031901126103095761034161032d6004356143fe565b34610309576040366003190112610309576133c56136b4565b602435906001600160a01b0380806133dc85613aef565b169216918083146134d7578033149081156134b2575b501561344757600083815260046020526040902080546001600160a01b0319168317905561341f83613aef565b167f8c5be1e5ebec7d5bd14f71427d1e84f3dd0314c0f7b2291e5b200ac8c7c3b925600080a4005b60405162461bcd60e51b815260206004820152603d60248201527f4552433732313a20617070726f76652063616c6c6572206973206e6f7420746f60448201527f6b656e206f776e6572206f7220617070726f76656420666f7220616c6c0000006064820152608490fd5b9050600052600560205260406000203360005260205260ff60406000205416846133f2565b60405162461bcd60e51b815260206004820152602160248201527f4552433732313a20617070726f76616c20746f2063757272656e74206f776e656044820152603960f91b6064820152608490fd5b34610309576020366003190112610309576020612eb4600435613bf5565b34610309576000366003190112610309576040516000805461356581613b15565b808452906001908181169081156125af575060011461358e576103418461032d81860382613781565b600080805292507f290decd9548b62a8d60345a988386fc84ba6bc95484008f6362f93160ef3e5635b8284106135cf57505050810160200161032d82612546565b805460208587018101919091529093019281016135b7565b34610309576020366003190112610309576004359063ffffffff60e01b821680920361030957602091637965db0b60e01b8114908115613629575b5015158152f35b6380ac58cd60e01b81149150811561365b575b811561364a575b5083613622565b6301ffc9a760e01b14905083613643565b635b5e139f60e01b8114915061363c565b60005b83811061367f5750506000910152565b818101518382015260200161366f565b906020916136a88151809281855285808601910161366c565b601f01601f1916010190565b600435906001600160a01b038216820361030957565b602435906001600160a01b038216820361030957565b6060906003190112610309576001600160a01b0390600435828116810361030957916024359081168103610309579060443590565b602081019081106001600160401b0382111761220357604052565b606081019081106001600160401b0382111761220357604052565b604081019081106001600160401b0382111761220357604052565b608081019081106001600160401b0382111761220357604052565b90601f801991011681019081106001600160401b0382111761220357604052565b6001600160401b0381116122035760051b60200190565b6001600160401b03811161220357601f01601f191660200190565b9291926137e0826137b9565b916137ee6040519384613781565b829481845281830111610309578281602093846000960137010152565b6040906003190112610309576004359060243590565b60009080825260209060078252604092838120338252835260ff84822054161561384b5750505050565b613854336140a5565b9184519061386182613766565b604282528482019260603685378251156139c157603084538251906001918210156139c15790607860218501536041915b81831161395357505050613911576048612c159386936138f5936138e6985198899376020b1b1b2b9b9a1b7b73a3937b61d1030b1b1b7bab73a1604d1b8a860152612bbd815180928c60378901910161366c565b01036028810187520185613781565b5192839262461bcd60e51b84526004840152602483019061368f565b60648486519062461bcd60e51b825280600483015260248201527f537472696e67733a20686578206c656e67746820696e73756666696369656e746044820152fd5b909192600f811660108110156139ad576f181899199a1a9b1b9c1cb0b131b232b360811b901a6139838587614094565b5360041c92801561399957600019019190613892565b634e487b7160e01b82526011600452602482fd5b634e487b7160e01b83526032600452602483fd5b634e487b7160e01b81526032600452602490fd5b906000918083526007602052604083209160018060a01b03169182845260205260ff604084205416613a0657505050565b8083526007602052604083208284526020526040832060ff1981541690557ff6391f5c32d9c69d2a47ea670b442974b53935d1edc7fd64eb21e047a839171b339380a4565b6006546001600160a01b03163303613a5f57565b606460405162461bcd60e51b815260206004820152602060248201527f4f776e61626c653a2063616c6c6572206973206e6f7420746865206f776e65726044820152fd5b15613aaa57565b60405162461bcd60e51b815260206004820152601860248201527f4552433732313a20696e76616c696420746f6b656e20494400000000000000006044820152606490fd5b6000908152600260205260409020546001600160a01b0316613b12811515613aa3565b90565b90600182811c92168015613b45575b6020831014613b2f57565b634e487b7160e01b600052602260045260246000fd5b91607f1691613b24565b9060405191826000825492613b6384613b15565b908184526001948581169081600014613bd25750600114613b8f575b5050613b8d92500383613781565b565b9093915060005260209081600020936000915b818310613bba575050613b8d93508201013880613b7f565b85548884018501529485019487945091830191613ba2565b915050613b8d94506020925060ff191682840152151560051b8201013880613b7f565b600081815260026020526040902054613c18906001600160a01b03161515613aa3565b6000908152600460205260409020546001600160a01b031690565b15613c3a57565b60405162461bcd60e51b815260206004820152602d60248201527f4552433732313a2063616c6c6572206973206e6f7420746f6b656e206f776e6560448201526c1c881bdc88185c1c1c9bdd9959609a1b6064820152608490fd5b60809060208152603260208201527f4552433732313a207472616e7366657220746f206e6f6e20455243373231526560408201527131b2b4bb32b91034b6b83632b6b2b73a32b960711b60608201520190565b15613cef57565b60405162461bcd60e51b815280612c1560048201613c95565b906001600160a01b038080613d1c84613aef565b16931691838314938415613d4f575b508315613d39575b50505090565b613d4591929350613bf5565b1614388080613d33565b909350600052600560205260406000208260005260205260ff604060002054169238613d2b565b15613d7d57565b60405162461bcd60e51b815260206004820152602560248201527f4552433732313a207472616e736665722066726f6d20696e636f72726563742060448201526437bbb732b960d91b6064820152608490fd5b90613df891613dde84613aef565b6001600160a01b0393918416928492909183168414613d76565b16918215613e985781613e1d91613e0d614db5565b613e1686613aef565b1614613d76565b7fddf252ad1be2c89b69c2b068fc378daa952ba7f163c4a11628f55a4df523b3ef60008481526004602052604081206001600160601b0360a01b9081815416905583825260036020526040822060001981540190558482526040822060018154019055858252600260205284604083209182541617905580a4565b60405162461bcd60e51b8152602060048201526024808201527f4552433732313a207472616e7366657220746f20746865207a65726f206164646044820152637265737360e01b6064820152608490fd5b9192600092909190803b15613fff57613f37946040518092630a85bd0160e11b9485835233600484015287602484015260448301526080606483015281878160209a8b96608483019061368f565b03926001600160a01b03165af1849181613fbb575b50613faa575050503d600014613fa2573d613f66816137b9565b90613f746040519283613781565b81528091833d92013e5b80519182613f9f5760405162461bcd60e51b815280612c1560048201613c95565b01fd5b506060613f7e565b6001600160e01b0319161492509050565b9091508581813d8311613ff8575b613fd38183613781565b81010312613ff457516001600160e01b031981168103613ff4579038613f4c565b8480fd5b503d613fc9565b5050915050600190565b9293600093909291803b15614089579484916140639660405180948193630a85bd0160e11b9788845233600485015260018060a01b0380921660248501526044840152608060648401528260209b8c97608483019061368f565b0393165af1849181613fbb5750613faa575050503d600014613fa2573d613f66816137b9565b505050915050600190565b90815181101561228b570160200190565b604051906140b282613730565b602a825260208201604036823782511561228b5760309053815160019081101561228b57607860218401536029905b8082116140f1575050612c195790565b9091600f8116601081101561414a576f181899199a1a9b1b9c1cb0b131b232b360811b901a6141208486614094565b5360041c9180156141355760001901906140e1565b60246000634e487b7160e01b81526011600452fd5b60246000634e487b7160e01b81526032600452fd5b3561ffff811681036103095790565b1561417557565b60405162461bcd60e51b815260206004820152601c60248201527f4552433732313a20746f6b656e20616c7265616479206d696e746564000000006044820152606490fd5b600052602090600a8252600460406000200154600c54906141da826137a2565b916141e86040519384613781565b808352848301600c6000527fdf6966c971051c3d54ec59162606531493a51404a002842f56009d7e5cf4a8c7956000915b83831061422f5750505050613b129293506146b1565b600182819261423d8b613b4f565b815201980192019196614219565b600052602090600a8252600560406000200154600d549061426b826137a2565b916142796040519384613781565b808352848301600d6000527fd7b6990105719101dabeb77144f2a3385c8033acd3af97e9423a695e81ad1eb5956000915b8383106142c05750505050613b129293506146b1565b60018281926142ce8b613b4f565b8152019801920191966142aa565b600052602090600a8252600660406000200154600e54906142fc826137a2565b9161430a6040519384613781565b808352848301600e6000527fbb7b4a454dc3493923482f07822329ed19e8244eff582cc204f8554c3620c3fd956000915b8383106143515750505050613b129293506146b1565b600182819261435f8b613b4f565b81520198019201919661433b565b600052602090600a8252600760406000200154600f549061438d826137a2565b9161439b6040519384613781565b808352848301600f6000527f8d1108e10bcb7c27dddfc02ed9d693a074039d026cf4ea4240b40f7d581ac802956000915b8383106143e25750505050613b129293506146b1565b60018281926143f08b613b4f565b8152019801920191966143cc565b600052602090600a82526008604060002001546010549061441e826137a2565b9161442c6040519384613781565b80835284830160106000527f1b6847dc741a1b0cd08d278845f9d819d87b734759afb55fe2de5cb82a9ae672956000915b8383106144735750505050613b129293506146b1565b60018281926144818b613b4f565b81520198019201919661445d565b600052602090600a8252600960406000200154601154906144af826137a2565b916144bd6040519384613781565b80835284830160116000527f31ecc21a745e3968a04e9570e4425bc18fa8019c68028196b546d1669c200c68956000915b8383106145045750505050613b129293506146b1565b60018281926145128b613b4f565b8152019801920191966144ee565b600052602090600a8252600a6040600020015460125490614540826137a2565b9161454e6040519384613781565b80835284830160126000527fbb8a6a4669ba250d26cd7a459eca9d215f8307e33aebe50379bc5a3617ec3444956000915b8383106145955750505050613b129293506146b1565b60018281926145a38b613b4f565b81520198019201919661457f565b600052602090600a8252600b60406000200154601354906145d1826137a2565b916145df6040519384613781565b80835284830160136000527f66de8ffda797e3de9c05e8fc57b3bf0ec28a930d40b0d285d93c06501cf6a090956000915b8383106146265750505050613b129293506146b1565b60018281926146348b613b4f565b815201980192019196614610565b9060405191828154918282526020928383019160005283600020936000905b82821061467757505050613b8d92500383613781565b855484526001958601958895509381019390910190614661565b811561469b570690565b634e487b7160e01b600052601260045260246000fd5b80156149d1576146c2825182614691565b825181101561228b57602092839160051b010151916015820690600e82116148c9575b60138210156146f45750505090565b60409391928451906147058261374b565b8260005b8781106148bb57505060155461471f8183614691565b9081101561228b576147579060156000527f55f448fdea98c4d29eb340757ef0a66cd03dbb9538908a6a81d96026b71ec47501613b4f565b82526147666016548092614691565b9081101561228b5761479e9060166000527fd833147d7dc355ba459fc788f669e58cfaf9dc25ddcd0702e87d69c7b512428901613b4f565b8183018181529460130361482f57509161482793916148186024945193519651968794601160f91b848701526147dd815180928660218a01910161366c565b8501600160fd1b60218201526147fc825180938660228501910161366c565b019161011160f51b60228401528351938491878501910161366c565b01036004810184520182613781565b388080613d33565b94916148b6945061489b60279492519351968794601160f91b8487015261485f815180928660218a01910161366c565b8501600160fd1b602182015261487e825180938660228501910161366c565b019161011160f51b6022840152835193849160248501910161366c565b0162202b3160e81b6024820152036007810184520182613781565b614827565b606081850152018390614709565b926014546148d78185614691565b9081101561228b5760146000527fce6d7b5282bd9a3661ae061feed1dbda4e52ab073b1f9285be6e155d9c38d4ec016040518261491d829451809289808601910161366c565b8101600160fd1b87820152600090835461493681613b15565b946001918083169081156149ae5750600114614969575b505050614963925003601f198101835282613781565b926146e5565b909192506000528760002090886000925b868410614996575050505061496392602191010138808061494d565b8054858501602101528795509201918990820161497a565b9150506021935061496395915060ff19168383015280151502010138808061494d565b50506040516149df8161374b565b6005815264456d70747960d81b602082015290565b906149fe826137b9565b614a0b6040519182613781565b8281528092614a1c601f19916137b9565b0190602036910137565b805115614b5857604051614a3981613730565b604081527f4142434445464748494a4b4c4d4e4f505152535455565758595a61626364656660208201527f6768696a6b6c6d6e6f707172737475767778797a303132333435363738392b2f60408201528151600292838201809211612ca1576003918290046001600160fe1b0381168103612ca157614abb908594951b6149f4565b936020850193829183518401925b838110614b075750505050510680600114614af457600214614ae9575090565b603d90600019015390565b50603d9081600019820153600119015390565b85600491979293949701918251600190603f9082828260121c16880101518453828282600c1c16880101518385015382828260061c1688010151888501531685010151878201530195929190614ac9565b50604051614b6581613715565b6000815290565b806000917a184f03e93ff9f4daa797ed6e38ed64bf6a1f01000000000000000080821015614ca1575b506d04ee2d6d415b85acef810000000080831015614c92575b50662386f26fc1000080831015614c83575b506305f5e10080831015614c74575b5061271080831015614c65575b506064821015614c55575b600a80921015614c4b575b600190816021614c038287016149f4565b95860101905b614c15575b5050505090565b600019019083906f181899199a1a9b1b9c1cb0b131b232b360811b8282061a835304918215614c4657919082614c09565b614c0e565b9160010191614bf2565b9190606460029104910191614be7565b60049193920491019138614bdc565b60089193920491019138614bcf565b60109193920491019138614bc0565b60209193920491019138614bae565b604093508104915038614b95565b603f613b12916040519384916f3d913a3930b4ba2fba3cb832911d101160811b6020840152614ce881518092602060308701910161366c565b82016c111610113b30b63ab2911d101160991b6030820152614d14825180936020603d8501910161366c565b0161227d60f01b603d82015203601f810184520182613781565b90603d614d3d613b1292614b6c565b926040519384916f3d913a3930b4ba2fba3cb832911d101160811b6020840152614d7181518092602060308701910161366c565b82016b0111610113b30b63ab2911d160a51b6030820152614d9c825180936020603c8501910161366c565b01607d60f81b603c82015203601d810184520182613781565b60ff60085416614dc157565b60405162461bcd60e51b815260206004820152601060248201526f14185d5cd8589b194e881c185d5cd95960821b6044820152606490fdfea2646970667358221220ccd3a41eb747a71ab5fba51e0cb00842f96f7dbe74de38e73634ddc3987bca4564736f6c63430008110033bb7b4a454dc3493923482f07822329ed19e8244eff582cc204f8554c3620c3fdbb8a6a4669ba250d26cd7a459eca9d215f8307e33aebe50379bc5a3617ec344455f448fdea98c4d29eb340757ef0a66cd03dbb9538908a6a81d96026b71ec47531ecc21a745e3968a04e9570e4425bc18fa8019c68028196b546d1669c200c68290decd9548b62a8d60345a988386fc84ba6bc95484008f6362f93160ef3e563d7b6990105719101dabeb77144f2a3385c8033acd3af97e9423a695e81ad1eb566de8ffda797e3de9c05e8fc57b3bf0ec28a930d40b0d285d93c06501cf6a090ce6d7b5282bd9a3661ae061feed1dbda4e52ab073b1f9285be6e155d9c38d4ec1b6847dc741a1b0cd08d278845f9d819d87b734759afb55fe2de5cb82a9ae6726d5257204ebe7d88fd91ae87941cb2dd9d8062b64ae5a2bd2d28ec40b9fbf6dfd833147d7dc355ba459fc788f669e58cfaf9dc25ddcd0702e87d69c7b51242898d1108e10bcb7c27dddfc02ed9d693a074039d026cf4ea4240b40f7d581ac802",
  "linkReferences": {},
  "deployedLinkReferences": {}
}