{
    "_format": "hh-sol-artifact-1",
    "contractName": "Rogue",
    "sourceName": "contracts/v1/Rogue.sol",
    "abi": [
        {
            "inputs": [
                {
                    "internalType": "address",
                    "name": "_loot",
                    "type": "address"
                },
                {
                    "internalType": "address",
                    "name": "_costToken",
                    "type": "address"
                },
                {
                    "internalType": "uint256",
                    "name": "_cost",
                    "type": "uint256"
                },
                {
                    "internalType": "address",
                    "name": "_receipt",
                    "type": "address"
                }
            ],
            "stateMutability": "nonpayable",
            "type": "constructor"
        },
        {
            "anonymous": false,
            "inputs": [
                {
                    "indexed": true,
                    "internalType": "address",
                    "name": "previousOwner",
                    "type": "address"
                },
                {
                    "indexed": true,
                    "internalType": "address",
                    "name": "newOwner",
                    "type": "address"
                }
            ],
            "name": "OwnershipTransferred",
            "type": "event"
        },
        {
            "anonymous": false,
            "inputs": [
                {
                    "indexed": false,
                    "internalType": "address",
                    "name": "account",
                    "type": "address"
                }
            ],
            "name": "Paused",
            "type": "event"
        },
        {
            "anonymous": false,
            "inputs": [
                {
                    "indexed": false,
                    "internalType": "address",
                    "name": "account",
                    "type": "address"
                }
            ],
            "name": "Unpaused",
            "type": "event"
        },
        {
            "inputs": [],
            "name": "MAX_RELIC",
            "outputs": [
                {
                    "internalType": "uint8",
                    "name": "",
                    "type": "uint8"
                }
            ],
            "stateMutability": "view",
            "type": "function"
        },
        {
            "inputs": [],
            "name": "SIZE",
            "outputs": [
                {
                    "internalType": "uint256",
                    "name": "",
                    "type": "uint256"
                }
            ],
            "stateMutability": "view",
            "type": "function"
        },
        {
            "inputs": [
                {
                    "internalType": "uint256",
                    "name": "seed",
                    "type": "uint256"
                },
                {
                    "internalType": "uint8[]",
                    "name": "directions",
                    "type": "uint8[]"
                },
                {
                    "internalType": "uint8[]",
                    "name": "items",
                    "type": "uint8[]"
                }
            ],
            "name": "adventure",
            "outputs": [
                {
                    "components": [
                        {
                            "internalType": "uint256",
                            "name": "seed",
                            "type": "uint256"
                        },
                        {
                            "internalType": "uint16",
                            "name": "turn",
                            "type": "uint16"
                        },
                        {
                            "internalType": "uint16",
                            "name": "maxHp",
                            "type": "uint16"
                        },
                        {
                            "internalType": "uint16",
                            "name": "currentHp",
                            "type": "uint16"
                        },
                        {
                            "internalType": "uint16",
                            "name": "attack",
                            "type": "uint16"
                        },
                        {
                            "internalType": "uint16",
                            "name": "defence",
                            "type": "uint16"
                        },
                        {
                            "internalType": "uint16",
                            "name": "recovery",
                            "type": "uint16"
                        },
                        {
                            "internalType": "uint16[6]",
                            "name": "stats",
                            "type": "uint16[6]"
                        },
                        {
                            "internalType": "uint8[4]",
                            "name": "unique",
                            "type": "uint8[4]"
                        },
                        {
                            "internalType": "uint256",
                            "name": "weapon",
                            "type": "uint256"
                        },
                        {
                            "internalType": "uint256",
                            "name": "chestArmor",
                            "type": "uint256"
                        },
                        {
                            "internalType": "uint256",
                            "name": "headArmor",
                            "type": "uint256"
                        },
                        {
                            "internalType": "uint256",
                            "name": "waistArmor",
                            "type": "uint256"
                        },
                        {
                            "internalType": "uint256",
                            "name": "footArmor",
                            "type": "uint256"
                        },
                        {
                            "internalType": "uint256",
                            "name": "handArmor",
                            "type": "uint256"
                        },
                        {
                            "internalType": "uint256",
                            "name": "necklace",
                            "type": "uint256"
                        },
                        {
                            "internalType": "uint256",
                            "name": "ring",
                            "type": "uint256"
                        },
                        {
                            "internalType": "uint256[]",
                            "name": "relics",
                            "type": "uint256[]"
                        }
                    ],
                    "internalType": "struct ILootByRogue.AdventureRecord",
                    "name": "",
                    "type": "tuple"
                }
            ],
            "stateMutability": "view",
            "type": "function"
        },
        {
            "inputs": [],
            "name": "cost",
            "outputs": [
                {
                    "internalType": "uint256",
                    "name": "",
                    "type": "uint256"
                }
            ],
            "stateMutability": "view",
            "type": "function"
        },
        {
            "inputs": [],
            "name": "costToken",
            "outputs": [
                {
                    "internalType": "contract IERC20",
                    "name": "",
                    "type": "address"
                }
            ],
            "stateMutability": "view",
            "type": "function"
        },
        {
            "inputs": [],
            "name": "loot",
            "outputs": [
                {
                    "internalType": "contract ILootByRogue",
                    "name": "",
                    "type": "address"
                }
            ],
            "stateMutability": "view",
            "type": "function"
        },
        {
            "inputs": [
                {
                    "internalType": "uint256",
                    "name": "seed",
                    "type": "uint256"
                },
                {
                    "internalType": "uint8[]",
                    "name": "directions",
                    "type": "uint8[]"
                },
                {
                    "internalType": "uint8[]",
                    "name": "items",
                    "type": "uint8[]"
                }
            ],
            "name": "mint",
            "outputs": [],
            "stateMutability": "nonpayable",
            "type": "function"
        },
        {
            "inputs": [],
            "name": "owner",
            "outputs": [
                {
                    "internalType": "address",
                    "name": "",
                    "type": "address"
                }
            ],
            "stateMutability": "view",
            "type": "function"
        },
        {
            "inputs": [],
            "name": "pause",
            "outputs": [],
            "stateMutability": "nonpayable",
            "type": "function"
        },
        {
            "inputs": [],
            "name": "paused",
            "outputs": [
                {
                    "internalType": "bool",
                    "name": "",
                    "type": "bool"
                }
            ],
            "stateMutability": "view",
            "type": "function"
        },
        {
            "inputs": [],
            "name": "receipt",
            "outputs": [
                {
                    "internalType": "address",
                    "name": "",
                    "type": "address"
                }
            ],
            "stateMutability": "view",
            "type": "function"
        },
        {
            "inputs": [],
            "name": "renounceOwnership",
            "outputs": [],
            "stateMutability": "nonpayable",
            "type": "function"
        },
        {
            "inputs": [
                {
                    "internalType": "contract IERC20",
                    "name": "_costToken",
                    "type": "address"
                }
            ],
            "name": "setCostToken",
            "outputs": [],
            "stateMutability": "nonpayable",
            "type": "function"
        },
        {
            "inputs": [
                {
                    "internalType": "address",
                    "name": "_receipt",
                    "type": "address"
                }
            ],
            "name": "setReceipt",
            "outputs": [],
            "stateMutability": "nonpayable",
            "type": "function"
        },
        {
            "inputs": [
                {
                    "internalType": "address",
                    "name": "newOwner",
                    "type": "address"
                }
            ],
            "name": "transferOwnership",
            "outputs": [],
            "stateMutability": "nonpayable",
            "type": "function"
        },
        {
            "inputs": [],
            "name": "unpause",
            "outputs": [],
            "stateMutability": "nonpayable",
            "type": "function"
        }
    ],
    "bytecode": "0x6080346200010957601f62001edc38819003918201601f19168301916001600160401b038311848410176200010e5780849260809460405283398101031262000109576200004d8162000124565b6200005b6020830162000124565b6200006e60606040850151940162000124565b600080546001600160a81b0319811633600881811b610100600160a81b0316929092178455604051976001600160a01b03969094879491939190911c8416907f8be0079c531659141344cd1fd0a4f28419497f9722a3daafe3b4186f6b6457e09080a38160018060a01b031996168660015416176001551684600254161760025560035516906004541617600455611da290816200013a8239f35b600080fd5b634e487b7160e01b600052604160045260246000fd5b51906001600160a01b0382168203620001095756fe6080604081815260048036101561001557600080fd5b600092833560e01c908163123080cb1461068b5750806313b390de1461065457806313faede6146106355780633f4ba83a146105a25780635c975abb14610580578063715018a61461051f57806374a349d2146104f65780637bd02e20146103365780638456cb59146102dd5780638da5cb5b146102b15780639b7b2ab014610288578063ac0ef2171461023f578063bdffd28214610223578063e1e6b898146101fc578063e68507f3146101b75763f2fde38b146100d357600080fd5b346101b35760203660031901126101b35780356001600160a01b03818116939092908483036101af5761010461088a565b841561015d57505060008054610100600160a81b03198116600893841b610100600160a81b031617825590911c91909116907f8be0079c531659141344cd1fd0a4f28419497f9722a3daafe3b4186f6b6457e09080a380f35b906020608492519162461bcd60e51b8352820152602660248201527f4f776e61626c653a206e6577206f776e657220697320746865207a65726f206160448201526564647265737360d01b6064820152fd5b8580fd5b8280fd5b8382346101f85760203660031901126101f85780356001600160a01b038116908190036101b3576101e661088a565b81546001600160a01b03191617905580f35b5080fd5b50346101b357826003193601126101b3575490516001600160a01b03909116815260209150f35b5050346101f857816003193601126101f8578060209151908152f35b8382346101f85760203660031901126101f857356001600160a01b038116908190036101f85761026d61088a565b6bffffffffffffffffffffffff60a01b600254161760025580f35b5050346101f857816003193601126101f85760015490516001600160a01b039091168152602090f35b5050346101f857816003193601126101f8579054905160089190911c6001600160a01b03168152602090f35b5050346101f857816003193601126101f85760207f62e78cea01bee320cd4e420270b5ea74000d11b0c9f74754ebdbfc544b05a2589161031b61088a565b61032361096f565b835460ff1916600117845551338152a180f35b509190346101f857610347366106db565b96939261035592919261096f565b8782036104bc5760018060a01b039384600254166020868854166064898c600354958d5196879586946323b872dd60e01b86523390860152602485015260448401525af19081156104b2578991610474575b501561043f57916103bb9391889993610bba565b906001541690813b1561043b5784916103f59185519687809481936342983a3160e11b83523389840152896024840152604483019061072a565b03925af1801561043157610407578380f35b6001600160401b03831161041e5750523880808380f35b634e487b7160e01b845260419052602483fd5b82513d86823e3d90fd5b8480fd5b865162461bcd60e51b8152602081880152600f60248201526e151c985b9cd9995c8819985a5b1959608a1b6044820152606490fd5b90506020813d82116104aa575b8161048e6020938361094e565b810103126104a6575180151581036104a657386103a7565b8880fd5b3d9150610481565b88513d8b823e3d90fd5b855162461bcd60e51b81526020818701526014602482015273098cadccee8d0e640c8de40dcdee840dac2e8c6d60631b6044820152606490fd5b5050346101f857816003193601126101f85760025490516001600160a01b039091168152602090f35b833461057d578060031936011261057d5761053861088a565b8054610100600160a81b031981168255819060081c6001600160a01b03167f8be0079c531659141344cd1fd0a4f28419497f9722a3daafe3b4186f6b6457e08280a380f35b80fd5b5050346101f857816003193601126101f85760ff602092541690519015158152f35b50346101b357826003193601126101b3576105bb61088a565b82549060ff8216156105fb575060ff19168255513381527f5db9ee0a495bf2e6ff9c91a7834c1ba4fdd244a5e8aa4e537bd38aeae4b073aa90602090a180f35b606490602084519162461bcd60e51b8352820152601460248201527314185d5cd8589b194e881b9bdd081c185d5cd95960621b6044820152fd5b5050346101f857816003193601126101f8576020906003549051908152f35b5050346101f8576106879061067461066b366106db565b93929092610bba565b905191829160208352602083019061072a565b0390f35b8490346101f857816003193601126101f85780601060209252f35b9181601f840112156106d6578235916001600160401b0383116106d6576020808501948460051b0101116106d657565b600080fd5b9060606003198301126106d657600435916001600160401b03916024358381116106d6578261070c916004016106a6565b939093926044359182116106d657610726916004016106a6565b9091565b9061034091828201918151815261ffff91602092808483015116848401528060408301511660408401528060608301511660608401528060808301511660808401528060a08301511660a08401528060c08301511660c084015260e082015160e08401906000915b866006841061087457505050506101008201516101a092915060008484015b6004821061085c575050509161036091836101208697969501519161022092838501526101408201516102408501526101608201516102608501526101808201516102808501528101516102a08401526101c08101516102c08401526101e08101516102e084015261020081015161030084015201519561032082015285518094520193019160005b828110610848575050505090565b83518552938101939281019260010161083a565b868060019260ff8651168152019301910190916107b1565b8060019286855116815201920192019190610792565b60005460081c6001600160a01b031633036108a157565b606460405162461bcd60e51b815260206004820152602060248201527f4f776e61626c653a2063616c6c6572206973206e6f7420746865206f776e65726044820152fd5b61024081019081106001600160401b0382111761090157604052565b634e487b7160e01b600052604160045260246000fd5b61010081019081106001600160401b0382111761090157604052565b608081019081106001600160401b0382111761090157604052565b90601f801991011681019081106001600160401b0382111761090157604052565b60ff6000541661097b57565b60405162461bcd60e51b815260206004820152601060248201526f14185d5cd8589b194e881c185d5cd95960821b6044820152606490fd5b604051906109c0826108e5565b8160008082528060208301528060408301528060608301528060808301528060a08301528060c083015260405160c081018181106001600160401b03821117610a6b5791606093916102209360405260c036823760e0830152604051610a2581610933565b608036823761010083015280610120830152806101408301528061016083015280610180830152806101a0830152806101c0830152806101e08301526102008201520152565b634e487b7160e01b83526041600452602483fd5b9190811015610a8f5760051b0190565b634e487b7160e01b600052603260045260246000fd5b3560ff811681036106d65790565b60ff60019116019060ff8211610ac557565b634e487b7160e01b600052601160045260246000fd5b15610ae257565b60405162461bcd60e51b815260206004820152601760248201527f4d6f76656d656e74206973206e6f7420616c6c6f7765640000000000000000006044820152606490fd5b60ff1660ff8114610ac55760010190565b60ff6000199116019060ff8211610ac557565b60ff168015610ac5576000190190565b61ffff9182169082160391908211610ac557565b906010811015610a8f5760051b0190565b91908201809211610ac557565b91909161ffff80809416911601918211610ac557565b6001600160401b0381116109015760051b60200190565b9190939293610bc76109b3565b506040519261020084018481106001600160401b0382111761090157604052610200368537610bf46109b3565b506040519560c087018781106001600160401b03821117610901576040526000875260006020880152600060408801526000606088015260006080880152600060a08801526040518060808101106001600160401b03608083011117610901576080810160405260008152600060208201526000604082015260006060820152604051908160208101106001600160401b0360208401111761090157602082016040526000825260405198610ca88a6108e5565b848a52600060208b0152602a60408b0152602a60608b0152600a60808b0152600260a08b0152600160c08b015260e08a0152610100890152600061012089015260006101408901526000610160890152600061018089015260006101a089015260006101c089015260006101e08901526000610200890152610220880152600060e0604051610d3681610917565b8281528260208201528260408201528260608201528260808201528260a08201528260c0820152015260405195610d6c87610917565b60208752602080880152600060408801526000606088015260006080880152600060a0880152600060c0880152600060e0880152604051610dac81610917565b603f620134ab8506168152603f61e6138506166020820152603f620110e58506166040820152603f61324a8506166060820152603f61b1bd8506166080820152603f6188f985061660a0820152603f615c7385061660c082015260e0603f620119fe860616910152604051806108008101106001600160401b0361080083011117610901576108008101604052610800368237610e5660ff89511660ff60208b0151169083611cab565b8860005b878110610f56575050505050505061ffff60e08401511603610f115760ff60a0830151169081610e8b575b50505090565b91939092610e9884610ba3565b93610ea6604051958661094e565b808552610eb5601f1991610ba3565b0136602086013760005b60ff60a087015116811015610efd57610ed88185610b6f565b518551821015610a8f5760208260051b870101526000198114610ac557600101610ebf565b509291509250610220820152388080610e85565b60405162461bcd60e51b815260206004820152601d60248201527f54686520656e6420706f696e74206973206e6f742074686520657869740000006044820152606490fd5b61ffff60018160208995015116011660208c015260ff610f7f610f7a838b8b610a7f565b610aa5565b168061168c5750610fa660ff60208c015116603f8114908c821561166b575b505015610adb565b60ff610fb78160208d015116610b27565b1660208b01525b610fd560ff8b511660ff60208d0151169085611cab565b6000600160ff610fe9610f7a85898b610a7f565b160361160757508961ffff6110f58d8260606110ec60ff828801511696600083820152611017888287611af8565b89604082015182516020840151604051926020840194468652604085015260ff60f81b80938160f893841b168a870152821b1660618501521b1660628201526043815261106381610933565b51902099620134ab810660381b673f000000000000001661e613820660301b663f0000000000001617620110e5820660281b653f0000000000161761324a820660201b643f00000000161761b1bd820660181b633f00000016176188f9820660101b623f00001617615c73820660081b613f001617620119fe909106603f1617908a90866118a0565b92015116610b5b565b1660608d015261024c61054d840610156112455760ff6003911603611122575b600191505b018990610e5a565b60208b0151916040519281602085015261ffff60f01b9060f01b166040840152602283528260608101106001600160401b0360608501111761090157826060600194016040526020815191012090604661054d82061060001461118b57506101208c0152611115565b609061054d820610156111a457506101408c0152611115565b60da61054d820610156111bd57506101608c0152611115565b61012461054d820610156111d757506101808c0152611115565b61016e61054d820610156111f157506101a08c0152611115565b6101b861054d8206101561120b57506101c08c0152611115565b61020261054d8206101561122557506101e08c0152611115565b61054d61024c910610611239575b50611115565b6102008c015238611233565b506102fb61054d8306101561127f576001915061ffff6112748c82606061126b836117de565b92015116610b8d565b1660608c015261111a565b6103b461054d830610156112c357600382166006810110610ac55761ffff6112b88c826040816006600360019916011692015116610b8d565b1660408c015261111a565b61041661054d83061015611307576001808316016001831611610ac55761ffff6112fc8c82608081600180809916011692015116610b8d565b1660808c015261111a565b61047861054d8306101561134b576001808316016001831611610ac55761ffff6113408c8260a081600180809916011692015116610b8d565b1660a08c015261111a565b6104da61054d8306101561138e57600382066001810110610ac55761ffff6113838c8260c08160016003819906011692015116610b8d565b1660c08c015261111a565b9061053361054d820610156114015760608a015160ff166113c95760031690600182018211610ac55760ff60018093011660608b015261111a565b60ff60808b015116156113e0575b5060019061111a565b60031690600182018211610ac55760ff60018093011660808b0152906113d7565b9061053861054d83061015611588576080915061ffff6114358c8261142a610120830151611b6f565b958692015116610b8d565b1660808c015261ffff80831611610ac55761150e6115098c6114cc60019561ffff6114ae6114a0611492611484611470610140890151611bb7565b61147e6101608a0151611bb7565b90610b8d565b61147e610180890151611bb7565b61147e6101a0880151611bb7565b61147e6101c0870151611bb7565b91816114c0848260a089015116610b8d565b1660a086015216610b8d565b6114eb6114dd6101e0840151611bff565b61147e610200850151611bff565b9160c061ffff61150085828486015116610b8d565b16910152610b8d565b611ab5565b60608c015161ffff90811690821681116115705750508160608c01525b60006101208c015260006101408c015260006101608c015260006101808c015260006101a08c015260006101c08c015260006101e08c015260006102008c015261111a565b61ffff9161157d91610b5b565b1660608c015261152b565b60019161053e61054d820610156115ad575061ffff60208c01511660e08b015261111a565b61054361054d820610806115f6575b6115c7575b5061111a565b6115d860ff60a08d0151168b610b6f565b5260ff6115ea8160a08d015116610ab3565b1660a08b0152386115c1565b50601060ff60a08d015116106115bc565b8b8b600260ff61161b610f7a878b8d610a7f565b1614611635575b61ffff918260606110ec6110f594611017565b91506110f561ffff918260606110ec60ff608088015116966000608082015261165f888287611af8565b94505050509150611622565b611685925060ff61167e91511691610ab3565b9086611c8f565b388c610f9e565b600181036116e157506116b260ff60208c0151168015908c82156116ce57505015610adb565b60ff6116c38160208d015116610b4b565b1660208b0152610fbe565b611685925060ff61167e91511691610b38565b6002810361173e575061170460ff8b51168b811591821561171a57505015610adb565b60ff611712818c5116610b4b565b168a52610fbe565b6117379250602061172c60ff92610b38565b920151169086611c8f565b8b38610f9e565b90915060030361178657849061176660ff8b51168b603f821491821561177457505015610adb565b60ff611712818c5116610b27565b6117379250602061172c60ff92610ab3565b60405162461bcd60e51b815260206004820152601b60248201527f496e76616c69642076616c756520696e20646972656374696f6e7300000000006044820152606490fd5b81810292918115918404141715610ac557565b61ffff908160c0820151169182800460011483151715610ac5576060820181604061180c8284511687610b80565b9401511692831061181d5750505090565b61182a9350511690610b5b565b90565b61ffff908160c08201511690600382029180830460031490151715610ac557606081018360406118608284511686610b80565b930151169182106118715750501690565b5161182a93169150610b5b565b906004811015610a8f5760051b0190565b906006811015610a8f5760051b0190565b9290916118ba60ff92838551168460208701511691611ccf565b600081810b19611a06575050606490066118d481806117cb565b60c882029180830460c81490151715610ac557611388916118f491610b80565b04169161ffff92836020830151168461191c6119168260808701511693611acc565b84610b80565b16908181106119ef575b509360e083015160018261193a858461188f565b51160192828411610ac55761194e9161188f565b911690525b61ffff8060a083015116928160c08160208601511692015116116119de575b83811683821610156119d55780606061198b8587610b5b565b9301511691161161199f5761182a91610b5b565b60405162461bcd60e51b815260206004820152600e60248201526d04850206c657373207468616e20360941b6044820152606490fd5b50505050600090565b91604601828111610ac55791611972565b9061147e611509611a009383610b5b565b38611926565b90915061ffff94929480602085015116918160808601511692600f88611a2d878216610ab3565b160291888316928303611aa1575090611a48611a4e92611acc565b90610b80565b1690818110611a8a575b5093611a81816101008501519316611a7b83611a74838761187e565b5116610ab3565b9361187e565b91169052611953565b9061147e611509611a9b9383610b5b565b38611a58565b634e487b7160e01b81526011600452602490fd5b60011b906201fffe61fffe831692168203610ac557565b611ad681806117cb565b60011c81606402916064830403610ac5576101f491611af491610b80565b0490565b909160ff1660018103611b2b575090506060611b138261182d565b910190611b2661ffff9182845116610b8d565b169052565b60028103611b5257506020015161ffff90811660030190808211610ac55760c09116910152565b6004915014611b5e5750565b60400160ff611b2681835116610ab3565b611b7b61ffff91611c47565b1660018114611bb15760028114611bab5760038114611ba557600414611ba057600090565b601390565b50601290565b50600c90565b50600690565b611bc361ffff91611c47565b1660018114611bf95760028114611bf35760038114611bed57600414611be857600090565b600690565b50600590565b50600390565b50600190565b611c0b61ffff91611c47565b1660018114611c415760028114611c3b5760038114611c3557600414611c3057600090565b601090565b50600f90565b50600890565b50600490565b8015611c785760159006600f8110611bf95760138110611c7257601303611c6d57600390565b600490565b50600290565b50600090565b906040811015610a8f5760051b0190565b611ca160ff9182600194951690611c7e565b5192161b16151590565b9190600160ff80611ccc941692161b611cc48285611c7e565b511792611c7e565b52565b9160ff80921680838560381c1614611d55575b80838560281c1614611d3e575b80838560181c1614611d27575b828460081c1614611d11575b50505060001990565b8116911614611d2257388080611d08565b600390565b828216838560101c1603611cfc5750505050600290565b828216838560201c1603611cef5750505050600190565b828216838560301c1603611ce2575050505060009056fea2646970667358221220273323865f499b4b5c52f109f098f79ddfb57c3febf4f2379880c352961d720a64736f6c63430008110033",
    "linkReferences": {},
    "deployedLinkReferences": {}
}