{
  "_format": "hh-sol-artifact-1",
  "contractName": "SimpleRouge",
  "sourceName": "contracts/SimpleRouge.sol",
  "abi": [
    {
      "inputs": [],
      "stateMutability": "nonpayable",
      "type": "constructor"
    },
    {
      "anonymous": false,
      "inputs": [
        {
          "indexed": true,
          "internalType": "address",
          "name": "previousOwner",
          "type": "address"
        },
        {
          "indexed": true,
          "internalType": "address",
          "name": "newOwner",
          "type": "address"
        }
      ],
      "name": "OwnershipTransferred",
      "type": "event"
    },
    {
      "anonymous": false,
      "inputs": [
        {
          "indexed": false,
          "internalType": "address",
          "name": "account",
          "type": "address"
        }
      ],
      "name": "Paused",
      "type": "event"
    },
    {
      "anonymous": false,
      "inputs": [
        {
          "indexed": false,
          "internalType": "address",
          "name": "account",
          "type": "address"
        }
      ],
      "name": "Unpaused",
      "type": "event"
    },
    {
      "inputs": [
        {
          "internalType": "uint256",
          "name": "seed",
          "type": "uint256"
        },
        {
          "internalType": "uint8[]",
          "name": "actions",
          "type": "uint8[]"
        }
      ],
      "name": "adventure",
      "outputs": [
        {
          "components": [
            {
              "internalType": "uint256",
              "name": "seed",
              "type": "uint256"
            },
            {
              "internalType": "uint128",
              "name": "turn",
              "type": "uint128"
            },
            {
              "internalType": "uint32",
              "name": "hp",
              "type": "uint32"
            },
            {
              "internalType": "uint32",
              "name": "attack",
              "type": "uint32"
            },
            {
              "internalType": "uint32",
              "name": "defence",
              "type": "uint32"
            },
            {
              "internalType": "uint32",
              "name": "recovery",
              "type": "uint32"
            },
            {
              "internalType": "uint256",
              "name": "weapon",
              "type": "uint256"
            },
            {
              "internalType": "uint256",
              "name": "chestArmor",
              "type": "uint256"
            },
            {
              "internalType": "uint256",
              "name": "headArmor",
              "type": "uint256"
            },
            {
              "internalType": "uint256",
              "name": "waistArmor",
              "type": "uint256"
            },
            {
              "internalType": "uint256",
              "name": "footArmor",
              "type": "uint256"
            },
            {
              "internalType": "uint256",
              "name": "handArmor",
              "type": "uint256"
            },
            {
              "internalType": "uint256",
              "name": "necklace",
              "type": "uint256"
            },
            {
              "internalType": "uint256",
              "name": "ring",
              "type": "uint256"
            }
          ],
          "internalType": "struct SimpleRougeLoot.AdventureRecord",
          "name": "",
          "type": "tuple"
        }
      ],
      "stateMutability": "pure",
      "type": "function"
    },
    {
      "inputs": [],
      "name": "loot",
      "outputs": [
        {
          "internalType": "contract SimpleRougeLoot",
          "name": "",
          "type": "address"
        }
      ],
      "stateMutability": "view",
      "type": "function"
    },
    {
      "inputs": [
        {
          "internalType": "uint256",
          "name": "seed",
          "type": "uint256"
        },
        {
          "internalType": "uint8[]",
          "name": "actions",
          "type": "uint8[]"
        }
      ],
      "name": "mint",
      "outputs": [],
      "stateMutability": "nonpayable",
      "type": "function"
    },
    {
      "inputs": [],
      "name": "owner",
      "outputs": [
        {
          "internalType": "address",
          "name": "",
          "type": "address"
        }
      ],
      "stateMutability": "view",
      "type": "function"
    },
    {
      "inputs": [],
      "name": "pause",
      "outputs": [],
      "stateMutability": "nonpayable",
      "type": "function"
    },
    {
      "inputs": [],
      "name": "paused",
      "outputs": [
        {
          "internalType": "bool",
          "name": "",
          "type": "bool"
        }
      ],
      "stateMutability": "view",
      "type": "function"
    },
    {
      "inputs": [],
      "name": "renounceOwnership",
      "outputs": [],
      "stateMutability": "nonpayable",
      "type": "function"
    },
    {
      "inputs": [
        {
          "internalType": "address",
          "name": "newOwner",
          "type": "address"
        }
      ],
      "name": "transferOwnership",
      "outputs": [],
      "stateMutability": "nonpayable",
      "type": "function"
    },
    {
      "inputs": [],
      "name": "unpause",
      "outputs": [],
      "stateMutability": "nonpayable",
      "type": "function"
    }
  ],
  "bytecode": "0x60806040523480156200001157600080fd5b506000805460ff19169055620000273362000079565b6040516200003590620000d2565b604051809103906000f08015801562000052573d6000803e3d6000fd5b50600180546001600160a01b0319166001600160a01b0392909216919091179055620000e0565b600080546001600160a01b03838116610100818102610100600160a81b0319851617855560405193049190911692909183917f8be0079c531659141344cd1fd0a4f28419497f9722a3daafe3b4186f6b6457e091a35050565b615698806200152f83390190565b61143f80620000f06000396000f3fe608060405234801561001057600080fd5b50600436106100935760003560e01c80638da5cb5b116100665780638da5cb5b146100cd5780639b7b2ab0146100f7578063cd10f8d61461010a578063f2fde38b1461011d578063ff1c1b281461013057600080fd5b80633f4ba83a146100985780635c975abb146100a2578063715018a6146100bd5780638456cb59146100c5575b600080fd5b6100a0610150565b005b60005460ff1660405190151581526020015b60405180910390f35b6100a06101fb565b6100a0610237565b60005461010090046001600160a01b03165b6040516001600160a01b0390911681526020016100b4565b6001546100df906001600160a01b031681565b6100a0610118366004610fe8565b6102bf565b6100a061012b366004611067565b61037d565b61014361013e366004610fe8565b61041e565b6040516100b49190611166565b6000546001600160a01b036101009091041633146101895760405162461bcd60e51b81526004016101809061117b565b60405180910390fd5b610191610b62565b600160009054906101000a90046001600160a01b03166001600160a01b0316633f4ba83a6040518163ffffffff1660e01b8152600401600060405180830381600087803b1580156101e157600080fd5b505af11580156101f5573d6000803e3d6000fd5b50505050565b6000546001600160a01b0361010090910416331461022b5760405162461bcd60e51b81526004016101809061117b565b6102356000610bf5565b565b6000546001600160a01b036101009091041633146102675760405162461bcd60e51b81526004016101809061117b565b61026f610c4e565b600160009054906101000a90046001600160a01b03166001600160a01b0316638456cb596040518163ffffffff1660e01b8152600401600060405180830381600087803b1580156101e157600080fd5b60005460ff16156103055760405162461bcd60e51b815260206004820152601060248201526f14185d5cd8589b194e881c185d5cd95960821b6044820152606401610180565b600061031284848461041e565b60015460405163e3cbd8c560e01b81529192506001600160a01b03169063e3cbd8c59061034590339085906004016111b0565b600060405180830381600087803b15801561035f57600080fd5b505af1158015610373573d6000803e3d6000fd5b5050505050505050565b6000546001600160a01b036101009091041633146103ad5760405162461bcd60e51b81526004016101809061117b565b6001600160a01b0381166104125760405162461bcd60e51b815260206004820152602660248201527f4f776e61626c653a206e6577206f776e657220697320746865207a65726f206160448201526564647265737360d01b6064820152608401610180565b61041b81610bf5565b50565b6104b1604051806101c001604052806000815260200160006001600160801b03168152602001600063ffffffff168152602001600063ffffffff168152602001600063ffffffff168152602001600063ffffffff16815260200160008152602001600081526020016000815260200160008152602001600081526020016000815260200160008152602001600081525090565b6000604051806101c0016040528086815260200160006001600160801b03168152602001601863ffffffff168152602001600863ffffffff168152602001600463ffffffff168152602001600263ffffffff1681526020016000815260200160008152602001600081526020016000815260200160008152602001600081526020016000815260200160008152509050610549610f9b565b604080601860008061055a8b610cc9565b90508860005b81811015610b4f5760208901805190610578826111e4565b6001600160801b031690525060008c8c838181106105985761059861120a565b90506020020160208101906105ad9190611220565b905060006105bc600283611259565b60ff16600014905060038260ff161015610674578989608081106105e2576105e261120a565b60200201516105f289600161127b565b608081106106025761060261120a565b6020020151156106245760405162461bcd60e51b815260040161018090611293565b60018a8a608081106106385761063861120a565b60200201516106488a600161127b565b608081106106585761065861120a565b911515602090920201528761066c816112b2565b9850506108a8565b60058260ff16101561071c578989608081106106925761069261120a565b60200201516106a260018a6112cb565b608081106106b2576106b261120a565b6020020151156106d45760405162461bcd60e51b815260040161018090611293565b60018a8a608081106106e8576106e861120a565b60200201516106f860018b6112cb565b608081106107085761070861120a565b911515602090920201528761066c816112e2565b60078260ff1610156107cb57896107348a600161127b565b608081106107445761074461120a565b6020020151886080811061075a5761075a61120a565b60200201511561077c5760405162461bcd60e51b815260040161018090611293565b60018a6107898b8361127b565b608081106107995761079961120a565b602002015189608081106107af576107af61120a565b91151560209092020152886107c3816112b2565b9950506108a8565b60098260ff16101561087257896107e360018b6112cb565b608081106107f3576107f361120a565b602002015188608081106108095761080961120a565b60200201511561082b5760405162461bcd60e51b815260040161018090611293565b60018a610838828c6112cb565b608081106108485761084861120a565b6020020151896080811061085e5761085e61120a565b91151560209092020152886107c3816112e2565b60405162461bcd60e51b815260206004820152600b60248201526a195c9c9bdc881a5b9c1d5d60aa1b6044820152606401610180565b8080156108b55750856001145b156108d3576108c68b886005610dd2565b6108d0908861127b565b96505b60006108e48c606001518389610e2d565b905060006108f78d60800151848a610e69565b9050821561090457600097505b6000610942886109138e610cc9565b61091c8e610cc9565b60405160200161092e93929190611334565b604051602081830303815290604052610e82565b90506000610951603583611352565b90506109608f85858e86610eb3565b61096a908c6112cb565b9a50600281101561099857610980600383611352565b61098b90600161127b565b63ffffffff169950610b36565b60058110156109be576109ad8f8c6001610dd2565b6109b7908c61127b565b9a50610b36565b60088110156109fc576109d2600383611352565b6109dd90600161127b565b8f6040018181516109ee9190611366565b63ffffffff16905250610b36565b600b811015610a2c57610a10600283611352565b610a1b90600161127b565b8f6060018181516109ee9190611366565b600e811015610a5c57610a40600283611352565b610a4b90600161127b565b8f6080018181516109ee9190611366565b6011811015610a8c57610a70600283611352565b610a7b90600161127b565b8f60a0018181516109ee9190611366565b6014811015610aa15760c08f01829052610b36565b6015811015610ab65760e08f01829052610b36565b6016811015610acc576101008f01829052610b36565b6017811015610ae2576101208f01829052610b36565b6018811015610af8576101408f01829052610b36565b6019811015610b0e576101608f01829052610b36565b601a811015610b24576101808f01829052610b36565b601b811015610b36576101a08f018290525b5050505050508080610b47906112b2565b915050610560565b50969750505050505050505b9392505050565b60005460ff16610bab5760405162461bcd60e51b815260206004820152601460248201527314185d5cd8589b194e881b9bdd081c185d5cd95960621b6044820152606401610180565b6000805460ff191690557f5db9ee0a495bf2e6ff9c91a7834c1ba4fdd244a5e8aa4e537bd38aeae4b073aa335b6040516001600160a01b03909116815260200160405180910390a1565b600080546001600160a01b03838116610100818102610100600160a81b0319851617855560405193049190911692909183917f8be0079c531659141344cd1fd0a4f28419497f9722a3daafe3b4186f6b6457e091a35050565b60005460ff1615610c945760405162461bcd60e51b815260206004820152601060248201526f14185d5cd8589b194e881c185d5cd95960821b6044820152606401610180565b6000805460ff191660011790557f62e78cea01bee320cd4e420270b5ea74000d11b0c9f74754ebdbfc544b05a258610bd83390565b606081600003610cf05750506040805180820190915260018152600360fc1b602082015290565b8160005b8115610d1a5780610d04816112b2565b9150610d139050600a8361138e565b9150610cf4565b60008167ffffffffffffffff811115610d3557610d356113a2565b6040519080825280601f01601f191660200182016040528015610d5f576020820181803683370190505b5090505b8415610dca57610d746001836112cb565b9150610d81600a86611352565b610d8c90603061127b565b60f81b818381518110610da157610da161120a565b60200101906001600160f81b031916908160001a905350610dc3600a8661138e565b9450610d63565b949350505050565b600080828560a0015163ffffffff16610deb91906113b8565b604086015190915063ffffffff16610e03858361127b565b11610e0f579050610b5b565b83856040015163ffffffff16610e2591906112cb565b915050610b5b565b6000828015610e3c5750816002145b610e47576000610e4c565b6201869f5b610e5b9062ffffff1685611366565b63ffffffff16949350505050565b6000828015610e3c575081600314610e47576000610e4c565b600081604051602001610e9591906113d7565b60408051601f19818403018152919052805160209091012092915050565b60008060048760200151610ec791906113e3565b6001600160801b0316610edb600685611352565b610ee5919061127b565b905080861015610f255760405162461bcd60e51b815260206004820152600b60248201526a63616e6e6f74206d6f766560a81b6044820152606401610180565b80851015610f8c57610f3785826112cb565b841015610f6f5760405162461bcd60e51b8152600401610180906020808252600490820152630687020360e41b604082015260600190565b6080870151610f849063ffffffff16826112cb565b915050610f92565b60009150505b95945050505050565b6040518061100001604052806080905b610fb3610fc9565b815260200190600190039081610fab5790505090565b6040518061100001604052806080906020820280368337509192915050565b600080600060408486031215610ffd57600080fd5b83359250602084013567ffffffffffffffff8082111561101c57600080fd5b818601915086601f83011261103057600080fd5b81358181111561103f57600080fd5b8760208260051b850101111561105457600080fd5b6020830194508093505050509250925092565b60006020828403121561107957600080fd5b81356001600160a01b0381168114610b5b57600080fd5b8051825260208101516110ae60208401826001600160801b03169052565b5060408101516110c6604084018263ffffffff169052565b5060608101516110de606084018263ffffffff169052565b5060808101516110f6608084018263ffffffff169052565b5060a081015161110e60a084018263ffffffff169052565b5060c0818101519083015260e08082015190830152610100808201519083015261012080820151908301526101408082015190830152610160808201519083015261018080820151908301526101a090810151910152565b6101c081016111758284611090565b92915050565b6020808252818101527f4f776e61626c653a2063616c6c6572206973206e6f7420746865206f776e6572604082015260600190565b6001600160a01b03831681526101e08101610b5b6020830184611090565b634e487b7160e01b600052601160045260246000fd5b60006001600160801b03808316818103611200576112006111ce565b6001019392505050565b634e487b7160e01b600052603260045260246000fd5b60006020828403121561123257600080fd5b813560ff81168114610b5b57600080fd5b634e487b7160e01b600052601260045260246000fd5b600060ff83168061126c5761126c611243565b8060ff84160691505092915050565b6000821982111561128e5761128e6111ce565b500190565b6020808252600590820152641b5bdd995960da1b604082015260600190565b6000600182016112c4576112c46111ce565b5060010190565b6000828210156112dd576112dd6111ce565b500390565b6000816112f1576112f16111ce565b506000190190565b6000815160005b8181101561131a5760208185018101518683015201611300565b81811115611329576000828601525b509290920192915050565b6000610f9261134c61134684886112f9565b866112f9565b846112f9565b60008261136157611361611243565b500690565b600063ffffffff808316818516808303821115611385576113856111ce565b01949350505050565b60008261139d5761139d611243565b500490565b634e487b7160e01b600052604160045260246000fd5b60008160001904831182151516156113d2576113d26111ce565b500290565b6000610b5b82846112f9565b60006001600160801b03808416806113fd576113fd611243565b9216919091049291505056fea26469706673582212209a2d4f44b85861f070c29610f0af2852f81a9813721fea3811ba3e4c5093df7c64736f6c634300080d003360096102c0818152682bb0b93430b6b6b2b960b91b6102e0526080908152600c6103009081526b28bab0b93a32b939ba30b33360a11b6103205260a05260046103408181526313585d5b60e21b6103605260c052610380818152634d61636560e01b6103a05260e0526103c08181526321b63ab160e11b6103e052610100526006610400908152654b6174616e6160d01b61042052610120526008610440818152672330b631b434b7b760c11b61046052610140526104808181526729b1b4b6b4ba30b960c11b6104a05261016052600a6104c081815269131bdb99c814dddbdc9960b21b6104e05261018052600b6105009081526a14da1bdc9d0814dddbdc9960aa1b610520526101a0526105408181526911da1bdcdd0815d85b9960b21b610560526101c0526105809081526911dc985d994815d85b9960b21b6105a0526101e0526105c084815268109bdb994815d85b9960ba1b6105e052610200526106008281526315d85b9960e21b6106205261022052610640908152674772696d6f69726560c01b6106605261024052610680838152684368726f6e69636c6560b81b6106a052610260526106c081815263546f6d6560e01b6106e0526102805261074060405261070090815263426f6f6b60e01b610720526102a052620001e99190601262001d2b565b506040805161022081018252600b6101e082019081526a446976696e6520526f626560a81b61020083015281528151808301835260098082526853696c6b20526f626560b81b6020838101919091528084019290925283518085018552600a808252694c696e656e20526f626560b01b8285015284860191909152845180860186526004815263526f626560e01b81850152606085015284518086018652600581526414da1a5c9d60da1b818501526080850152845180860186528181526944656d6f6e204875736b60b01b8185015260a085015284518086018652601081526f223930b3b7b739b5b4b71020b936b7b960811b8185015260c085015284518086018652601581527f53747564646564204c6561746865722041726d6f7200000000000000000000008185015260e08501528451808601865260128152712430b932102632b0ba3432b91020b936b7b960711b8185015261010085015284518086018652600d81526c2632b0ba3432b91020b936b7b960991b8185015261012085015284518086018652600f8082526e486f6c79204368657374706c61746560881b828601526101408601919091528551808701875260118152704f726e617465204368657374706c61746560781b818601526101608601528551808701875282815269141b185d194813585a5b60b21b81860152610180860152855180870187528281526910da185a5b8813585a5b60b21b818601526101a0860152855180870190965291855268149a5b99c813585a5b60ba1b928501929092526101c08301939093526200043c9290919062001d8f565b506040805161022081018252600c6101e082019081526b416e6369656e742048656c6d60a01b610200830152815281518083018352600b8082526a4f726e6174652048656c6d60a81b6020838101919091528084019290925283518085018552600a8082526947726561742048656c6d60b01b82850152848601919091528451808601865260098082526846756c6c2048656c6d60b81b8286015260608601919091528551808701875260048082526348656c6d60e01b828701526080870191909152865180880188528481526a2232b6b7b71021b937bbb760a91b8187015260a087015286518088018852600e81526d223930b3b7b713b99021b937bbb760911b8187015260c08701528651808801885260078152660576172204361760cc1b8187015260e0870152865180880188528481526a04c656174686572204361760ac1b8187015261010087015286518088018852600381526204361760ec1b8187015261012087015286518088018852600581526421b937bbb760d91b81870152610140870152865180880188528481526a111a5d9a5b9948121bdbd960aa1b81870152610160870152865180880188529182526814da5b1ac8121bdbd960ba1b828601526101808601919091528551808701875291825269131a5b995b88121bdbd960b21b828501526101a08501919091528451808601909552845263121bdbd960e21b918401919091526101c08201929092526200065f9190600f62001d8f565b50604051806101e001604052806040518060400160405280600b81526020016a13dc9b985d194810995b1d60aa1b81525081526020016040518060400160405280600881526020016715d85c8810995b1d60c21b81525081526020016040518060400160405280600b81526020016a141b185d19590810995b1d60aa1b81525081526020016040518060400160405280600981526020016813595cda0810995b1d60ba1b81525081526020016040518060400160405280600a8152602001691219585d9e4810995b1d60b21b81525081526020016040518060400160405280600e81526020016d11195b5bdb9a1a59194810995b1d60921b81525081526020016040518060400160405280600f81526020016e111c9859dbdb9cdada5b8810995b1d608a1b81525081526020016040518060400160405280601481526020017f53747564646564204c6561746865722042656c7400000000000000000000000081525081526020016040518060400160405280601181526020017012185c99081319585d1a195c8810995b1d607a1b81525081526020016040518060400160405280600c81526020016b1319585d1a195c8810995b1d60a21b81525081526020016040518060400160405280600f81526020016e084e4d2ced0e8e6d2d8d640a6c2e6d608b1b8152508152602001604051806040016040528060098152602001680a6d2d8d640a6c2e6d60bb1b8152508152602001604051806040016040528060098152602001680aededed840a6c2e6d60bb1b81525081526020016040518060400160405280600a815260200169098d2dccadc40a6c2e6d60b31b8152508152602001604051806040016040528060048152602001630a6c2e6d60e31b815250815250600c90600f620008f592919062001d8f565b506040805161022081018252600c6101e082019081526b486f6c79204772656176657360a01b610200830152815281518083018352600e81526d4f726e617465204772656176657360901b602082810191909152808301919091528251808401845260078152664772656176657360c81b818301528284015282518084018452600b8082526a436861696e20426f6f747360a81b828401526060840191909152835180850185528181526a486561767920426f6f747360a81b81840152608084015283518085018552600f8082526e44656d6f6e6869646520426f6f747360881b8285015260a085019190915284518086018652601081526f447261676f6e736b696e20426f6f747360801b8185015260c085015284518086018652601581527f53747564646564204c65617468657220426f6f747300000000000000000000008185015260e085015284518086018652601281527148617264204c65617468657220426f6f747360701b8185015261010085015284518086018652600d8082526c4c65617468657220426f6f747360981b82860152610120860191909152855180870187528281526e446976696e6520536c69707065727360881b81860152610140860152855180870187528181526c53696c6b20536c69707065727360981b8186015261016086015285518087018752600a815269576f6f6c2053686f657360b01b81860152610180860152855180870187529283526a4c696e656e2053686f657360a81b838501526101a08501929092528451808601909552600585526453686f657360d81b928501929092526101c083019390935262000b5b92919062001d8f565b506040805161022081018252600e6101e082018181526d486f6c79204761756e746c65747360901b610200840152825282518084018452601081526f4f726e617465204761756e746c65747360801b602082810191909152808401919091528351808501855260098152684761756e746c65747360b81b818301528385015283518085018552600c8082526b436861696e20476c6f76657360a01b828401526060850191909152845180860186528181526b486561767920476c6f76657360a01b81840152608085015284518086018652600d8082526c44656d6f6e27732048616e647360981b8285015260a0860191909152855180870187526011815270447261676f6e736b696e20476c6f76657360781b8185015260c086015285518087018752601681527f53747564646564204c65617468657220476c6f766573000000000000000000008185015260e086015285518087018752601381527f48617264204c65617468657220476c6f7665730000000000000000000000000081850152610100860152855180870187528481526d4c65617468657220476c6f76657360901b81850152610120860152855180870187529081526c446976696e6520476c6f76657360981b8184015261014085015284518086018652600b8082526a53696c6b20476c6f76657360a81b82850152610160860191909152855180870187529081526a576f6f6c20476c6f76657360a81b81840152610180850152845180860186529081526b4c696e656e20476c6f76657360a01b818301526101a084015283518085019094526006845265476c6f76657360d01b908401526101c082019290925262000dcd9190600f62001d8f565b506040518060600160405280604051806040016040528060088152602001674e65636b6c61636560c01b815250815260200160405180604001604052806006815260200165105b5d5b195d60d21b81525081526020016040518060400160405280600781526020016614195b99185b9d60ca1b815250815250600f90600362000e5892919062001de1565b506040805160e081018252600960a0820190815268476f6c642052696e6760b81b60c0830152815281518083018352600b8082526a53696c7665722052696e6760a81b60208381019190915280840192909252835180850185529081526a42726f6e7a652052696e6760a81b818301528284015282518084018452600d8082526c506c6174696e756d2052696e6760981b828401526060840191909152835180850190945283526c546974616e69756d2052696e6760981b90830152608081019190915262000f2c90601090600562001e33565b506040805161024081018252600861020082018181526737b3102837bbb2b960c11b6102208401528252825180840184526009808252686f66204769616e747360b81b6020838101919091528085019290925284518086018652908152686f6620546974616e7360b81b818301528385015283518085018552828152671bd98814dada5b1b60c21b81830152606084015283518085018552600d8082526c37b3102832b93332b1ba34b7b760991b828401526080850191909152845180860186528181526c6f66204272696c6c69616e636560981b8184015260a08501528451808601865260108082526f1bd988115b9b1a59da1d195b9b595b9d60821b8285015260c0860191909152855180870187528281526c37b310283937ba32b1ba34b7b760991b8185015260e0860152855180870187529384526737b31020b733b2b960c11b84840152610100850193909352845180860186526007808252666f66205261676560c81b8285015261012086019190915285518087018752908152666f66204675727960c81b8184015261014085015284518086018652600a808252691bd988159a5d1c9a5bdb60b21b8285015261016086019190915285518087018752908152690decc40e8d0ca408cdef60b31b8184015261018085015284518086018652600c8082526b37b3102232ba32b1ba34b7b760a11b828501526101a0860191909152855180870187529182526c37b3102932b33632b1ba34b7b760991b828401526101c0850191909152845180860190955284526b6f6620746865205477696e7360a01b908401526101e082019290925262001190916011919062001e85565b50604080516108e08101825260056108a082018181526441676f6e7960d81b6108c0840152825282518084018452600a8082526941706f63616c7970736560b01b60208381019190915280850192909252845180860186528181526920b936b0b3b2b23237b760b11b818401528486015284518086018652838152641099585cdd60da1b81840152606085015284518086018652600880825267084cad0cadadee8d60c31b82850152608086019190915285518087018752600680825265109b1a59da1d60d21b8286015260a08701919091528651808801885285815264109b1bdbd960da1b8186015260c0870152865180880188526007808252664272616d626c6560c81b8287015260e0880191909152875180890189526009808252684272696d73746f6e6560b81b828801526101008901919091528851808a018a5287815264109c9bdbd960da1b818801526101208901528851808a018a528281526621b0b93934b7b760c91b818801526101408901528851808a018a528181526843617461636c79736d60b81b818801526101608901528851808a018a52848152674368696d6572696360c01b818801526101808901528851808a018a5283815265436f7270736560d01b818801526101a08901528851808a018a528581526921b7b9393ab83a34b7b760b11b818801526101c08901528851808a018a52818152682230b6b730ba34b7b760b91b818801526101e08901528851808a018a5287815264088cac2e8d60db1b818801526102008901528851808a018a52878152642232b6b7b760d91b818801526102208901528851808a018a526004808252634469726560e01b828901526102408a01919091528951808b018b5284815265223930b3b7b760d11b818901526102608a01528951808b018b5288815264111c99585960da1b818901526102808a01528951808b018b5281815263446f6f6d60e01b818901526102a08a01528951808b018b52818152634475736b60e01b818901526102c08a01528951808b018b52888152644561676c6560d81b818901526102e08a01528951808b018b528581526722b6b83cb932b0b760c11b818901526103008a01528951808b018b52818152634661746560e01b818901526103208a01528951808b018b52600380825262466f6560e81b828a01526103408b01919091528a51808c018c528281526347616c6560e01b818a01526103608b01528a51808c018c528981526411da1bdd5b60da1b818a01526103808b01528a51808c018c5289815264476c6f6f6d60d81b818a01526103a08b01528a51808c018c528981526408ed8f2e0d60db1b818a01526103c08b01528a51808c018c5289815264476f6c656d60d81b818a01526103e08b01528a51808c018c52828152634772696d60e01b818a01526104008b01528a51808c018c52828152634861746560e01b818a01526104208b01528a51808c018c52898152644861766f6360d81b818a01526104408b01528a51808c018c52858152652437b737bab960d11b818a01526104608b01528a51808c018c52858152652437b93937b960d11b818a01526104808b01528a51808c018c52868152674879706e6f74696360c01b818a01526104a08b01528a51808c018c528581526525b930b5b2b760d11b818a01526104c08b01528a51808c018c5289815264098dec2e8d60db1b818a01526104e08b01528a51808c018c52838152684d61656c7374726f6d60b81b818a01526105008b01528a51808c018c5282815263135a5b9960e21b818a01526105208b01528a51808c018c52848152664d697261636c6560c81b818a01526105408b01528a51808c018c5285815265135bdc989a5960d21b818a01526105608b01528a51808c018c529586526727b13634bb34b7b760c11b868901526105808a01959095528951808b018b528281526813db9cdb185d59da1d60ba1b818901526105a08a01528951808b018b52818152632830b4b760e11b818901526105c08a01528951808b018b52600b81526a50616e64656d6f6e69756d60a81b818901526105e08a01528951808b018b52838152660a0d0decadcd2f60cb1b818901526106008a01528951808b018b5284815265506c6167756560d01b818901526106208a01528951808b018b52818152635261676560e01b818901526106408a01528951808b018b52838152665261707475726560c81b818901526106608a01528951808b018b528181526352756e6560e01b818901526106808a01528951808b018b528881526414dadd5b1b60da1b818901526106a08a01528951808b018b528581526214dbdb60ea1b818901526106c08a01528951808b018b529081526314dbdd5b60e21b818801526106e08901528851808a018a5283815265536f72726f7760d01b818801526107008901528851808a018a528381526514dc1a5c9a5d60d21b818801526107208901528851808a018a528781526453746f726d60d81b818801526107408901528851808a018a528281526615195b5c195cdd60ca1b818801526107608901528851808a018a5282815266151bdc9b595b9d60ca1b818801526107808901528851808a018a529081526856656e6765616e636560b81b818701526107a08801528751808901895281815266566963746f727960c81b818701526107c088015287518089018952868152642b34b832b960d91b818701526107e088015287518089018952918252650acdee4e8caf60d31b828601526108008701919091528651808801885291825262576f6560e81b8285015261082086019190915285518087018752938452640aee4c2e8d60db1b8484015261084085019390935284518086018652928352664c69676874277360c81b838301526108608401929092528351808501909452908352695368696d6d6572696e6760b01b90830152610880810191909152620019fa90601290604562001ed7565b506040805161028081018252600461024082018181526342616e6560e01b61026084015282528251808401845281815263149bdbdd60e21b6020828101919091528084019190915283518085018552828152634269746560e01b81830152838501528351808501855282815263536f6e6760e01b81830152606084015283518085018552828152632937b0b960e11b81830152608084015283518085018552600580825264047726173760dc1b8284015260a085019190915284518086018652600a815269125b9cdd1c9d5b595b9d60b21b8184015260c08501528451808601865283815263476c6f7760e01b8184015260e0850152845180860186526006808252652132b73232b960d11b828501526101008601919091528551808701875290815265536861646f7760d01b818401526101208501528451808601865260078152662bb434b9b832b960c91b81840152610140850152845180860186528181526414da1bdd5d60da1b81840152610160850152845180860186529081526411dc9bdddb60da1b8183015261018084015283518085018552828152632a32b0b960e11b818301526101a084015283518085018552828152635065616b60e01b818301526101c08401528351808501855282815263466f726d60e01b818301526101e084015283518085018552600381526229bab760e91b8183015261020084015283518085019094529083526326b7b7b760e11b9083015261022081019190915262001c2b90601390601262001d2b565b5034801562001c3957600080fd5b50604080518082018252600f81526e14da5b5c1b19549bdd59d9531bdbdd608a1b60208083019182528351808501909452600684526514d49313d3d560d21b90840152815191929162001c8f9160009162001f29565b50805162001ca590600190602084019062001f29565b50505062001cc262001cbc62001cd560201b60201c565b62001cd9565b6006805460ff60a01b191690556200206a565b3390565b600680546001600160a01b038381166001600160a01b0319831681179093556040519116919082907f8be0079c531659141344cd1fd0a4f28419497f9722a3daafe3b4186f6b6457e090600090a35050565b82805482825590600052602060002090810192821562001d7d579160200282015b8281111562001d7d578251805162001d6c91849160209091019062001f29565b509160200191906001019062001d4c565b5062001d8b92915062001fb4565b5090565b82805482825590600052602060002090810192821562001d7d579160200282015b8281111562001d7d578251805162001dd091849160209091019062001f29565b509160200191906001019062001db0565b82805482825590600052602060002090810192821562001d7d579160200282015b8281111562001d7d578251805162001e2291849160209091019062001f29565b509160200191906001019062001e02565b82805482825590600052602060002090810192821562001d7d579160200282015b8281111562001d7d578251805162001e7491849160209091019062001f29565b509160200191906001019062001e54565b82805482825590600052602060002090810192821562001d7d579160200282015b8281111562001d7d578251805162001ec691849160209091019062001f29565b509160200191906001019062001ea6565b82805482825590600052602060002090810192821562001d7d579160200282015b8281111562001d7d578251805162001f1891849160209091019062001f29565b509160200191906001019062001ef8565b82805462001f37906200202e565b90600052602060002090601f01602090048101928262001f5b576000855562001fa6565b82601f1062001f7657805160ff191683800117855562001fa6565b8280016001018555821562001fa6579182015b8281111562001fa657825182559160200191906001019062001f89565b5062001d8b92915062001fd5565b8082111562001d8b57600062001fcb828262001fec565b5060010162001fb4565b5b8082111562001d8b576000815560010162001fd6565b50805462001ffa906200202e565b6000825580601f106200200b575050565b601f0160209004906000526020600020908101906200202b919062001fd5565b50565b600181811c908216806200204357607f821691505b6020821081036200206457634e487b7160e01b600052602260045260246000fd5b50919050565b61361e806200207a6000396000f3fe608060405234801561001057600080fd5b506004361061021c5760003560e01c80638da5cb5b11610125578063c08a5dd5116100ad578063e0d4ea371161007c578063e0d4ea3714610582578063e3cbd8c514610595578063e985e9c5146105a8578063ef68075a146105e4578063f2fde38b146105f757600080fd5b8063c08a5dd514610536578063c87b56dd14610549578063cff840f01461055c578063d47f269e1461056f57600080fd5b80639e41b73f116100f45780639e41b73f146104d7578063a1fae8c8146104ea578063a22cb465146104fd578063b55991c014610510578063b88d4fde1461052357600080fd5b80638da5cb5b1461049857806395d89b41146104a95780639720c969146104b15780639bdc1b69146104c457600080fd5b80634f64b2be116101a857806367209aa81161017757806367209aa81461044157806370a0823114610454578063715018a6146104755780638456cb591461047d5780638458bd701461048557600080fd5b80634f64b2be146102f257806351585b49146104095780635c975abb1461041c5780636352211e1461042e57600080fd5b80630e99990d116101ef5780630e99990d1461029e57806323b872dd146102b157806326079a4d146102c45780633f4ba83a146102d757806342842e0e146102df57600080fd5b806301ffc9a71461022157806306fdde0314610249578063081812fc1461025e578063095ea7b314610289575b600080fd5b61023461022f366004612615565b61060a565b60405190151581526020015b60405180910390f35b61025161065c565b6040516102409190612691565b61027161026c3660046126a4565b6106ee565b6040516001600160a01b039091168152602001610240565b61029c6102973660046126d9565b610788565b005b6102516102ac3660046126a4565b61089d565b61029c6102bf366004612703565b610987565b6102516102d23660046127de565b6109b8565b61029c610c93565b61029c6102ed366004612703565b610cc7565b61038a6103003660046126a4565b6008602081905260009182526040909120805460018201546002830154600384015460048501546005860154600687015460078801549888015460099098015496986001600160801b0387169863ffffffff600160801b8904811699600160a01b8a04821699600160c01b8104831699600160e01b9091049092169791969195919491939192908e565b604080519e8f526001600160801b03909d1660208f015263ffffffff9b8c169c8e019c909c52988a1660608d015296891660808c01529790941660a08a015260c089019290925260e08801526101008701526101208601526101408501929092526101608401919091526101808301526101a08201526101c001610240565b6102516104173660046126a4565b610ce2565b600654600160a01b900460ff16610234565b61027161043c3660046126a4565b610d0d565b61025161044f3660046126a4565b610d84565b6104676104623660046128c3565b610e64565b604051908152602001610240565b61029c610eeb565b61029c610f1f565b6102516104933660046126a4565b610f51565b6006546001600160a01b0316610271565b610251610f7c565b6102516104bf3660046126a4565b610f8b565b6102516104d23660046126a4565b61106c565b6102516104e53660046126a4565b61114d565b6102516104f83660046126a4565b61122e565b61029c61050b3660046128de565b611259565b61025161051e3660046126a4565b611268565b61029c61053136600461291a565b61128f565b6102516105443660046126a4565b6112c7565b6102516105573660046126a4565b6113a8565b61025161056a3660046126a4565b6117ec565b61025161057d3660046126a4565b611817565b6102516105903660046126a4565b6118f8565b61029c6105a3366004612996565b611913565b6102346105b63660046129d7565b6001600160a01b03918216600090815260056020908152604080832093909416825291909152205460ff1690565b6102516105f23660046126a4565b611980565b61029c6106053660046128c3565b611a61565b60006001600160e01b031982166380ac58cd60e01b148061063b57506001600160e01b03198216635b5e139f60e01b145b8061065657506301ffc9a760e01b6001600160e01b03198316145b92915050565b60606000805461066b90612a0a565b80601f016020809104026020016040519081016040528092919081815260200182805461069790612a0a565b80156106e45780601f106106b9576101008083540402835291602001916106e4565b820191906000526020600020905b8154815290600101906020018083116106c757829003601f168201915b5050505050905090565b6000818152600260205260408120546001600160a01b031661076c5760405162461bcd60e51b815260206004820152602c60248201527f4552433732313a20617070726f76656420717565727920666f72206e6f6e657860448201526b34b9ba32b73a103a37b5b2b760a11b60648201526084015b60405180910390fd5b506000908152600460205260409020546001600160a01b031690565b600061079382610d0d565b9050806001600160a01b0316836001600160a01b0316036108005760405162461bcd60e51b815260206004820152602160248201527f4552433732313a20617070726f76616c20746f2063757272656e74206f776e656044820152603960f91b6064820152608401610763565b336001600160a01b038216148061081c575061081c81336105b6565b61088e5760405162461bcd60e51b815260206004820152603860248201527f4552433732313a20617070726f76652063616c6c6572206973206e6f74206f7760448201527f6e6572206e6f7220617070726f76656420666f7220616c6c00000000000000006064820152608401610763565b6108988383611afc565b505050565b600081815260086020908152604080832060060154600d80548351818602810186019094528084526060956106569593949384015b8282101561097e5783829060005260206000200180546108f190612a0a565b80601f016020809104026020016040519081016040528092919081815260200182805461091d90612a0a565b801561096a5780601f1061093f5761010080835404028352916020019161096a565b820191906000526020600020905b81548152906001019060200180831161094d57829003601f168201915b5050505050815260200190600101906108d2565b505050506109b8565b6109913382611b6a565b6109ad5760405162461bcd60e51b815260040161076390612a44565b610898838383611c61565b6060826000036109e45750604080518082019091526005815264456d70747960d81b6020820152610656565b6000828351856109f49190612aab565b81518110610a0457610a04612abf565b602002602001015190506000601585610a1d9190612aab565b905080600003610a2f57509050610656565b600e811115610a865760118054839190610a499088612aab565b81548110610a5957610a59612abf565b90600052602060002001604051602001610a74929190612ad5565b60405160208183030381529060405291505b60138110610c8b57610a966125bd565b60128054610aa49088612aab565b81548110610ab457610ab4612abf565b906000526020600020018054610ac990612a0a565b80601f0160208091040260200160405190810160405280929190818152602001828054610af590612a0a565b8015610b425780601f10610b1757610100808354040283529160200191610b42565b820191906000526020600020905b815481529060010190602001808311610b2557829003601f168201915b505050505081600060028110610b5a57610b5a612abf565b602002015260138054610b6d9088612aab565b81548110610b7d57610b7d612abf565b906000526020600020018054610b9290612a0a565b80601f0160208091040260200160405190810160405280929190818152602001828054610bbe90612a0a565b8015610c0b5780601f10610be057610100808354040283529160200191610c0b565b820191906000526020600020905b815481529060010190602001808311610bee57829003601f168201915b505050505081600160028110610c2357610c23612abf565b60200201526013829003610c5f578051602080830151604051610c499392879101612b94565b6040516020818303038152906040529250610c89565b8051602080830151604051610c779392879101612c02565b60405160208183030381529060405292505b505b509392505050565b6006546001600160a01b03163314610cbd5760405162461bcd60e51b815260040161076390612c80565b610cc5611e08565b565b6108988383836040518060200160405280600081525061128f565b60008181526008602052604090206001015460609061065690600160c01b900463ffffffff16611ea5565b6000818152600260205260408120546001600160a01b0316806106565760405162461bcd60e51b815260206004820152602960248201527f4552433732313a206f776e657220717565727920666f72206e6f6e657869737460448201526832b73a103a37b5b2b760b91b6064820152608401610763565b600081815260086020818152604080842090920154600f805484518185028101850190955280855260609561065695939484015b8282101561097e578382906000526020600020018054610dd790612a0a565b80601f0160208091040260200160405190810160405280929190818152602001828054610e0390612a0a565b8015610e505780601f10610e2557610100808354040283529160200191610e50565b820191906000526020600020905b815481529060010190602001808311610e3357829003601f168201915b505050505081526020019060010190610db8565b60006001600160a01b038216610ecf5760405162461bcd60e51b815260206004820152602a60248201527f4552433732313a2062616c616e636520717565727920666f7220746865207a65604482015269726f206164647265737360b01b6064820152608401610763565b506001600160a01b031660009081526003602052604090205490565b6006546001600160a01b03163314610f155760405162461bcd60e51b815260040161076390612c80565b610cc56000611fa6565b6006546001600160a01b03163314610f495760405162461bcd60e51b815260040161076390612c80565b610cc5611ff8565b60008181526008602052604090206001015460609061065690600160801b900463ffffffff16611ea5565b60606001805461066b90612a0a565b600081815260086020908152604080832060040154600b80548351818602810186019094528084526060956106569593949384015b8282101561097e578382906000526020600020018054610fdf90612a0a565b80601f016020809104026020016040519081016040528092919081815260200182805461100b90612a0a565b80156110585780601f1061102d57610100808354040283529160200191611058565b820191906000526020600020905b81548152906001019060200180831161103b57829003601f168201915b505050505081526020019060010190610fc0565b600081815260086020908152604080832060050154600c80548351818602810186019094528084526060956106569593949384015b8282101561097e5783829060005260206000200180546110c090612a0a565b80601f01602080910402602001604051908101604052809291908181526020018280546110ec90612a0a565b80156111395780601f1061110e57610100808354040283529160200191611139565b820191906000526020600020905b81548152906001019060200180831161111c57829003601f168201915b5050505050815260200190600101906110a1565b600081815260086020908152604080832060020154600980548351818602810186019094528084526060956106569593949384015b8282101561097e5783829060005260206000200180546111a190612a0a565b80601f01602080910402602001604051908101604052809291908181526020018280546111cd90612a0a565b801561121a5780601f106111ef5761010080835404028352916020019161121a565b820191906000526020600020905b8154815290600101906020018083116111fd57829003601f168201915b505050505081526020019060010190611182565b60008181526008602052604090206001015460609061065690600160e01b900463ffffffff16611ea5565b611264338383612080565b5050565b600081815260086020526040902060010154606090610656906001600160801b0316611ea5565b6112993383611b6a565b6112b55760405162461bcd60e51b815260040161076390612a44565b6112c18484848461214e565b50505050565b600081815260086020908152604080832060090154601080548351818602810186019094528084526060956106569593949384015b8282101561097e57838290600052602060002001805461131b90612a0a565b80601f016020809104026020016040519081016040528092919081815260200182805461134790612a0a565b80156113945780601f1061136957610100808354040283529160200191611394565b820191906000526020600020905b81548152906001019060200180831161137757829003601f168201915b5050505050815260200190600101906112fc565b60606113b26125e4565b60405180610120016040528060fd815260200161340960fd913981526113d7836118f8565b816001602002018190525060405180606001604052806028815260200161356f60289139604082015261140983611268565b606080830191909152604080519182019052602880825261329a6020830139608082015261143683610f51565b60a08201526040805160608101909152602880825261333d602083013960c0820152611461836117ec565b60e082015260408051606081019091526029808252613365602083013961010082015261148d83610ce2565b6101208201526040805160608101909152602980825261331460208301396101408201526114ba8361122e565b610160820152604080516060810190915260298082526132eb60208301396101808201526114e78361114d565b6101a08201526040805160608101909152602980825261359760208301396101c082015261151483611980565b6101e08201526040805160608101909152602980825261338e602083013961020082015261154183610f8b565b610220820152604080516060810190915260298082526132c2602083013961024082015261156e8361106c565b610260820152604080516060810190915260298082526133b7602083013961028082015261159b8361089d565b6102a0820152604080516060810190915260298082526135c060208301396102c08201526115c883611817565b6102e08201526040805160608101909152602980825261354660208301396103008201526115f583610d84565b610320820152604080516060810190915260298082526133e06020830139610340820152611622836112c7565b610360820152604080518082018252600d81526c1e17ba32bc3a1f1e17b9bb339f60991b602080830191909152610380840191909152825181840151838501516060860151608087015160a088015160c089015160e08a01516101008b0151995160009a6116929a909101612cb5565b60408051808303601f19018152908290526101208401516101408501516101608601516101808701516101a08801516101c08901516101e08a01516102008b01519799506116e5988a9890602001612cb5565b60408051808303601f19018152908290526102208401516102408501516102608601516102808701516102a08801516102c08901516102e08a01516103008b0151979950611738988a9890602001612cb5565b60408051808303601f190181529082905261032084015161034085015161036086015161038087015193955061177394869490602001612d76565b604051602081830303815290604052905060006117c061179286611ea5565b61179b84612181565b6040516020016117ac929190612de1565b604051602081830303815290604052612181565b9050806040516020016117d39190612f84565b60408051601f1981840301815291905295945050505050565b60008181526008602052604090206001015460609061065690600160a01b900463ffffffff16611ea5565b600081815260086020908152604080832060070154600e80548351818602810186019094528084526060956106569593949384015b8282101561097e57838290600052602060002001805461186b90612a0a565b80601f016020809104026020016040519081016040528092919081815260200182805461189790612a0a565b80156118e45780601f106118b9576101008083540402835291602001916118e4565b820191906000526020600020905b8154815290600101906020018083116118c757829003601f168201915b50505050508152602001906001019061184c565b60008181526008602052604090205460609061065690611ea5565b6006546001600160a01b0316331461193d5760405162461bcd60e51b815260040161076390612c80565b61194b600780546001019055565b600061195660075490565b600081815260086020526040902090915082906119738282612ff8565b90505061089883826122d4565b600081815260086020908152604080832060030154600a80548351818602810186019094528084526060956106569593949384015b8282101561097e5783829060005260206000200180546119d490612a0a565b80601f0160208091040260200160405190810160405280929190818152602001828054611a0090612a0a565b8015611a4d5780601f10611a2257610100808354040283529160200191611a4d565b820191906000526020600020905b815481529060010190602001808311611a3057829003601f168201915b5050505050815260200190600101906119b5565b6006546001600160a01b03163314611a8b5760405162461bcd60e51b815260040161076390612c80565b6001600160a01b038116611af05760405162461bcd60e51b815260206004820152602660248201527f4f776e61626c653a206e6577206f776e657220697320746865207a65726f206160448201526564647265737360d01b6064820152608401610763565b611af981611fa6565b50565b600081815260046020526040902080546001600160a01b0319166001600160a01b0384169081179091558190611b3182610d0d565b6001600160a01b03167f8c5be1e5ebec7d5bd14f71427d1e84f3dd0314c0f7b2291e5b200ac8c7c3b92560405160405180910390a45050565b6000818152600260205260408120546001600160a01b0316611be35760405162461bcd60e51b815260206004820152602c60248201527f4552433732313a206f70657261746f7220717565727920666f72206e6f6e657860448201526b34b9ba32b73a103a37b5b2b760a11b6064820152608401610763565b6000611bee83610d0d565b9050806001600160a01b0316846001600160a01b03161480611c295750836001600160a01b0316611c1e846106ee565b6001600160a01b0316145b80611c5957506001600160a01b0380821660009081526005602090815260408083209388168352929052205460ff165b949350505050565b826001600160a01b0316611c7482610d0d565b6001600160a01b031614611cd85760405162461bcd60e51b815260206004820152602560248201527f4552433732313a207472616e736665722066726f6d20696e636f72726563742060448201526437bbb732b960d91b6064820152608401610763565b6001600160a01b038216611d3a5760405162461bcd60e51b8152602060048201526024808201527f4552433732313a207472616e7366657220746f20746865207a65726f206164646044820152637265737360e01b6064820152608401610763565b611d458383836122ee565b611d50600082611afc565b6001600160a01b0383166000908152600360205260408120805460019290611d79908490613172565b90915550506001600160a01b0382166000908152600360205260408120805460019290611da7908490613189565b909155505060008181526002602052604080822080546001600160a01b0319166001600160a01b0386811691821790925591518493918716917fddf252ad1be2c89b69c2b068fc378daa952ba7f163c4a11628f55a4df523b3ef91a4505050565b600654600160a01b900460ff16611e585760405162461bcd60e51b815260206004820152601460248201527314185d5cd8589b194e881b9bdd081c185d5cd95960621b6044820152606401610763565b6006805460ff60a01b191690557f5db9ee0a495bf2e6ff9c91a7834c1ba4fdd244a5e8aa4e537bd38aeae4b073aa335b6040516001600160a01b03909116815260200160405180910390a1565b606081600003611ecc5750506040805180820190915260018152600360fc1b602082015290565b8160005b8115611ef65780611ee0816131a1565b9150611eef9050600a836131ba565b9150611ed0565b60008167ffffffffffffffff811115611f1157611f1161273f565b6040519080825280601f01601f191660200182016040528015611f3b576020820181803683370190505b5090505b8415611c5957611f50600183613172565b9150611f5d600a86612aab565b611f68906030613189565b60f81b818381518110611f7d57611f7d612abf565b60200101906001600160f81b031916908160001a905350611f9f600a866131ba565b9450611f3f565b600680546001600160a01b038381166001600160a01b0319831681179093556040519116919082907f8be0079c531659141344cd1fd0a4f28419497f9722a3daafe3b4186f6b6457e090600090a35050565b600654600160a01b900460ff16156120455760405162461bcd60e51b815260206004820152601060248201526f14185d5cd8589b194e881c185d5cd95960821b6044820152606401610763565b6006805460ff60a01b1916600160a01b1790557f62e78cea01bee320cd4e420270b5ea74000d11b0c9f74754ebdbfc544b05a258611e883390565b816001600160a01b0316836001600160a01b0316036120e15760405162461bcd60e51b815260206004820152601960248201527f4552433732313a20617070726f766520746f2063616c6c6572000000000000006044820152606401610763565b6001600160a01b03838116600081815260056020908152604080832094871680845294825291829020805460ff191686151590811790915591519182527f17307eab39ab6107e8899845ad3d59bd9653f200f220920489ca2b5937696c31910160405180910390a3505050565b612159848484611c61565b6121658484848461233b565b6112c15760405162461bcd60e51b8152600401610763906131ce565b606081516000036121a057505060408051602081019091526000815290565b600060405180606001604052806040815260200161350660409139905060006003845160026121cf9190613189565b6121d991906131ba565b6121e4906004613220565b67ffffffffffffffff8111156121fc576121fc61273f565b6040519080825280601f01601f191660200182016040528015612226576020820181803683370190505b509050600182016020820185865187015b80821015612292576003820191508151603f8160121c168501518453600184019350603f81600c1c168501518453600184019350603f8160061c168501518453600184019350603f8116850151845350600183019250612237565b50506003865106600181146122ae57600281146122c1576122c9565b603d6001830353603d60028303536122c9565b603d60018303535b509195945050505050565b61126482826040518060200160405280600081525061243c565b600654600160a01b900460ff16156108985760405162461bcd60e51b815260206004820152601060248201526f14185d5cd8589b194e881c185d5cd95960821b6044820152606401610763565b60006001600160a01b0384163b1561243157604051630a85bd0160e11b81526001600160a01b0385169063150b7a029061237f90339089908890889060040161323f565b6020604051808303816000875af19250505080156123ba575060408051601f3d908101601f191682019092526123b79181019061327c565b60015b612417573d8080156123e8576040519150601f19603f3d011682016040523d82523d6000602084013e6123ed565b606091505b50805160000361240f5760405162461bcd60e51b8152600401610763906131ce565b805181602001fd5b6001600160e01b031916630a85bd0160e11b149050611c59565b506001949350505050565b612446838361246f565b612453600084848461233b565b6108985760405162461bcd60e51b8152600401610763906131ce565b6001600160a01b0382166124c55760405162461bcd60e51b815260206004820181905260248201527f4552433732313a206d696e7420746f20746865207a65726f20616464726573736044820152606401610763565b6000818152600260205260409020546001600160a01b03161561252a5760405162461bcd60e51b815260206004820152601c60248201527f4552433732313a20746f6b656e20616c7265616479206d696e746564000000006044820152606401610763565b612536600083836122ee565b6001600160a01b038216600090815260036020526040812080546001929061255f908490613189565b909155505060008181526002602052604080822080546001600160a01b0319166001600160a01b03861690811790915590518392907fddf252ad1be2c89b69c2b068fc378daa952ba7f163c4a11628f55a4df523b3ef908290a45050565b60405180604001604052806002905b60608152602001906001900390816125cc5790505090565b604080516103a0810190915260608152601c602082016125cc565b6001600160e01b031981168114611af957600080fd5b60006020828403121561262757600080fd5b8135612632816125ff565b9392505050565b60005b8381101561265457818101518382015260200161263c565b838111156112c15750506000910152565b6000815180845261267d816020860160208601612639565b601f01601f19169290920160200192915050565b6020815260006126326020830184612665565b6000602082840312156126b657600080fd5b5035919050565b80356001600160a01b03811681146126d457600080fd5b919050565b600080604083850312156126ec57600080fd5b6126f5836126bd565b946020939093013593505050565b60008060006060848603121561271857600080fd5b612721846126bd565b925061272f602085016126bd565b9150604084013590509250925092565b634e487b7160e01b600052604160045260246000fd5b604051601f8201601f1916810167ffffffffffffffff8111828210171561277e5761277e61273f565b604052919050565b600067ffffffffffffffff8311156127a0576127a061273f565b6127b3601f8401601f1916602001612755565b90508281528383830111156127c757600080fd5b828260208301376000602084830101529392505050565b60008060408084860312156127f257600080fd5b8335925060208085013567ffffffffffffffff8082111561281257600080fd5b818701915087601f83011261282657600080fd5b8135818111156128385761283861273f565b8060051b612847858201612755565b918252838101850191858101908b84111561286157600080fd5b86860192505b838310156128b15782358581111561287f5760008081fd5b8601603f81018d136128915760008081fd5b6128a18d898301358b8401612786565b8352509186019190860190612867565b80985050505050505050509250929050565b6000602082840312156128d557600080fd5b612632826126bd565b600080604083850312156128f157600080fd5b6128fa836126bd565b91506020830135801515811461290f57600080fd5b809150509250929050565b6000806000806080858703121561293057600080fd5b612939856126bd565b9350612947602086016126bd565b925060408501359150606085013567ffffffffffffffff81111561296a57600080fd5b8501601f8101871361297b57600080fd5b61298a87823560208401612786565b91505092959194509250565b6000808284036101e08112156129ab57600080fd5b6129b4846126bd565b92506101c0601f19820112156129c957600080fd5b506020830190509250929050565b600080604083850312156129ea57600080fd5b6129f3836126bd565b9150612a01602084016126bd565b90509250929050565b600181811c90821680612a1e57607f821691505b602082108103612a3e57634e487b7160e01b600052602260045260246000fd5b50919050565b60208082526031908201527f4552433732313a207472616e736665722063616c6c6572206973206e6f74206f6040820152701ddb995c881b9bdc88185c1c1c9bdd9959607a1b606082015260800190565b634e487b7160e01b600052601260045260246000fd5b600082612aba57612aba612a95565b500690565b634e487b7160e01b600052603260045260246000fd5b600083516020612ae88285838901612639565b600160fd1b918401918252845460019060009080831c81841680612b0d57607f821691505b8582108103612b2a57634e487b7160e01b84526022600452602484fd5b808015612b3e5760018114612b5357612b84565b60ff1984168887015282880186019450612b84565b60008b81526020902060005b84811015612b7a5781548a8201890152908701908801612b5f565b5050858389010194505b50929a9950505050505050505050565b601160f91b81528351600090612bb1816001850160208901612639565b600160fd1b6001918401918201528451612bd2816002840160208901612639565b61011160f51b600292909101918201528351612bf5816004840160208801612639565b0160040195945050505050565b601160f91b81528351600090612c1f816001850160208901612639565b600160fd1b6001918401918201528451612c40816002840160208901612639565b61011160f51b600292909101918201528351612c63816004840160208801612639565b62202b3160e81b6004929091019182015260070195945050505050565b6020808252818101527f4f776e61626c653a2063616c6c6572206973206e6f7420746865206f776e6572604082015260600190565b60008a51612cc7818460208f01612639565b8a51612cd98183860160208f01612639565b8a519184010190612cee818360208e01612639565b8951612d008183850160208e01612639565b8951929091010190612d16818360208c01612639565b8751612d288183850160208c01612639565b8751929091010190612d3e818360208a01612639565b8551612d508183850160208a01612639565b8551929091010190612d66818360208801612639565b019b9a5050505050505050505050565b60008651612d88818460208b01612639565b865190830190612d9c818360208b01612639565b8651910190612daf818360208a01612639565b8551910190612dc2818360208901612639565b8451910190612dd5818360208801612639565b01979650505050505050565b7f7b226e616d65223a2022416476656e74757265205265636f7264202300000000815260008351612e1981601c850160208801612639565b80830190507f222c20226465736372697074696f6e223a20224c6f6f742069732072616e646f601c8201527f6d697a656420616476656e747572657220676561722067656e65726174656420603c8201527f616e642073746f726564206f6e20636861696e2e2053746174732c20696d6167605c8201527f65732c20616e64206f746865722066756e6374696f6e616c6974792061726520607c8201527f696e74656e74696f6e616c6c79206f6d697474656420666f72206f7468657273609c8201527f20746f20696e746572707265742e204665656c206672656520746f207573652060bc8201527f4c6f6f7420696e20616e792077617920796f752077616e742e222c2022696d6160dc8201527f6765223a2022646174613a696d6167652f7376672b786d6c3b6261736536342c60fc82015261011c8451612f638183850160208901612639565b612f79828285010161227d60f01b815260020190565b979650505050505050565b7f646174613a6170706c69636174696f6e2f6a736f6e3b6261736536342c000000815260008251612fbc81601d850160208701612639565b91909101601d0192915050565b600081356001600160801b038116811461065657600080fd5b6000813563ffffffff8116811461065657600080fd5b813581556001810161303561300f60208501612fc9565b82546fffffffffffffffffffffffffffffffff19166001600160801b0391909116178255565b61306861304460408501612fe2565b82805463ffffffff60801b191660809290921b63ffffffff60801b16919091179055565b61309b61307760608501612fe2565b82805463ffffffff60a01b191660a09290921b63ffffffff60a01b16919091179055565b6130ce6130aa60808501612fe2565b82805463ffffffff60c01b191660c09290921b63ffffffff60c01b16919091179055565b6131016130dd60a08501612fe2565b8280546001600160e01b031660e09290921b6001600160e01b031916919091179055565b5060c0820135600282015560e08201356003820155610100820135600482015561012082013560058201556101408201356006820155610160820135600782015561018082013560088201556101a082013560098201555050565b634e487b7160e01b600052601160045260246000fd5b6000828210156131845761318461315c565b500390565b6000821982111561319c5761319c61315c565b500190565b6000600182016131b3576131b361315c565b5060010190565b6000826131c9576131c9612a95565b500490565b60208082526032908201527f4552433732313a207472616e7366657220746f206e6f6e20455243373231526560408201527131b2b4bb32b91034b6b83632b6b2b73a32b960711b606082015260800190565b600081600019048311821515161561323a5761323a61315c565b500290565b6001600160a01b038581168252841660208201526040810183905260806060820181905260009061327290830184612665565b9695505050505050565b60006020828403121561328e57600080fd5b8151612632816125ff56fe3c2f746578743e3c7465787420783d2231302220793d2236302220636c6173733d2262617365223e3c2f746578743e3c7465787420783d2231302220793d223232302220636c6173733d2262617365223e3c2f746578743e3c7465787420783d2231302220793d223136302220636c6173733d2262617365223e3c2f746578743e3c7465787420783d2231302220793d223132302220636c6173733d2262617365223e3c2f746578743e3c7465787420783d2231302220793d2238302220636c6173733d2262617365223e3c2f746578743e3c7465787420783d2231302220793d223130302220636c6173733d2262617365223e3c2f746578743e3c7465787420783d2231302220793d223230302220636c6173733d2262617365223e3c2f746578743e3c7465787420783d2231302220793d223234302220636c6173733d2262617365223e3c2f746578743e3c7465787420783d2231302220793d223330302220636c6173733d2262617365223e3c73766720786d6c6e733d22687474703a2f2f7777772e77332e6f72672f323030302f73766722207072657365727665417370656374526174696f3d22784d696e594d696e206d656574222076696577426f783d223020302033353020333530223e3c7374796c653e2e62617365207b2066696c6c3a2077686974653b20666f6e742d66616d696c793a2073657269663b20666f6e742d73697a653a20313470783b207d3c2f7374796c653e3c726563742077696474683d223130302522206865696768743d2231303025222066696c6c3d22626c61636b22202f3e3c7465787420783d2231302220793d2232302220636c6173733d2262617365223e4142434445464748494a4b4c4d4e4f505152535455565758595a6162636465666768696a6b6c6d6e6f707172737475767778797a303132333435363738392b2f3c2f746578743e3c7465787420783d2231302220793d223238302220636c6173733d2262617365223e3c2f746578743e3c7465787420783d2231302220793d2234302220636c6173733d2262617365223e3c2f746578743e3c7465787420783d2231302220793d223138302220636c6173733d2262617365223e3c2f746578743e3c7465787420783d2231302220793d223236302220636c6173733d2262617365223ea264697066735822122086443f4348137665b74445ff57b0aeb9416ae9d0162044f9f5bc22d9e42e7e4364736f6c634300080d0033",
  "linkReferences": {},
  "deployedLinkReferences": {}
}